{
  "contractName": "AgencyApp",
  "abi": [
    {
      "anonymous": false,
      "inputs": [
        {
          "indexed": false,
          "internalType": "address",
          "name": "userAddr",
          "type": "address"
        }
      ],
      "name": "OnAccountAdd",
      "type": "event"
    },
    {
      "anonymous": false,
      "inputs": [
        {
          "indexed": false,
          "internalType": "address",
          "name": "userAddr",
          "type": "address"
        }
      ],
      "name": "OnAccountUpdate",
      "type": "event"
    },
    {
      "constant": true,
      "inputs": [
        {
          "internalType": "address",
          "name": "",
          "type": "address"
        }
      ],
      "name": "accounts",
      "outputs": [
        {
          "internalType": "string",
          "name": "name",
          "type": "string"
        },
        {
          "internalType": "uint64",
          "name": "acc_type",
          "type": "uint64"
        },
        {
          "internalType": "string",
          "name": "content",
          "type": "string"
        },
        {
          "internalType": "uint256",
          "name": "idx",
          "type": "uint256"
        },
        {
          "internalType": "bool",
          "name": "isValid",
          "type": "bool"
        }
      ],
      "payable": false,
      "stateMutability": "view",
      "type": "function"
    },
    {
      "constant": true,
      "inputs": [],
      "name": "isValidAccount",
      "outputs": [
        {
          "internalType": "bool",
          "name": "",
          "type": "bool"
        }
      ],
      "payable": false,
      "stateMutability": "view",
      "type": "function"
    },
    {
      "constant": false,
      "inputs": [
        {
          "internalType": "string",
          "name": "_name",
          "type": "string"
        },
        {
          "internalType": "uint64",
          "name": "_acc_type",
          "type": "uint64"
        }
      ],
      "name": "addAccount",
      "outputs": [],
      "payable": false,
      "stateMutability": "nonpayable",
      "type": "function"
    },
    {
      "constant": true,
      "inputs": [],
      "name": "getAccount",
      "outputs": [
        {
          "internalType": "string",
          "name": "_name",
          "type": "string"
        },
        {
          "internalType": "string",
          "name": "_content",
          "type": "string"
        },
        {
          "internalType": "uint64",
          "name": "_acc_type",
          "type": "uint64"
        }
      ],
      "payable": false,
      "stateMutability": "view",
      "type": "function"
    },
    {
      "constant": false,
      "inputs": [
        {
          "internalType": "string",
          "name": "_content",
          "type": "string"
        }
      ],
      "name": "updataAccount",
      "outputs": [],
      "payable": false,
      "stateMutability": "nonpayable",
      "type": "function"
    }
  ],
  "bytecode": "0x608060405234801561001057600080fd5b50610e7a806100206000396000f3fe608060405234801561001057600080fd5b50600436106100575760003560e01c80631f0db7211461005c5780635e5c06e2146101175780638d5886461461026d578063d991463b1461028f578063db613e811461035e575b600080fd5b6101156004803603602081101561007257600080fd5b810190808035906020019064010000000081111561008f57600080fd5b8201836020820111156100a157600080fd5b803590602001918460018302840111640100000000831117156100c357600080fd5b91908080601f016020809104026020016040519081016040528093929190818152602001838380828437600081840152601f19601f820116905080830192505050505050509192919290505050610468565b005b6101596004803603602081101561012d57600080fd5b81019080803573ffffffffffffffffffffffffffffffffffffffff1690602001909291905050506105a4565b60405180806020018667ffffffffffffffff1667ffffffffffffffff1681526020018060200185815260200184151515158152602001838103835288818151815260200191508051906020019080838360005b838110156101c75780820151818401526020810190506101ac565b50505050905090810190601f1680156101f45780820380516001836020036101000a031916815260200191505b50838103825286818151815260200191508051906020019080838360005b8381101561022d578082015181840152602081019050610212565b50505050905090810190601f16801561025a5780820380516001836020036101000a031916815260200191505b5097505050505050505060405180910390f35b61027561072b565b604051808215151515815260200191505060405180910390f35b61035c600480360360408110156102a557600080fd5b81019080803590602001906401000000008111156102c257600080fd5b8201836020820111156102d457600080fd5b803590602001918460018302840111640100000000831117156102f657600080fd5b91908080601f016020809104026020016040519081016040528093929190818152602001838380828437600081840152601f19601f820116905080830192505050505050509192919290803567ffffffffffffffff169060200190929190505050610781565b005b610366610ad7565b6040518080602001806020018467ffffffffffffffff1667ffffffffffffffff168152602001838103835286818151815260200191508051906020019080838360005b838110156103c45780820151818401526020810190506103a9565b50505050905090810190601f1680156103f15780820380516001836020036101000a031916815260200191505b50838103825285818151815260200191508051906020019080838360005b8381101561042a57808201518184015260208101905061040f565b50505050905090810190601f1680156104575780820380516001836020036101000a031916815260200191505b509550505050505060405180910390f35b61047061072b565b6104e2576040517f08c379a000000000000000000000000000000000000000000000000000000000815260040180806020018281038252601b8152602001807f41646472657373206d75737420626520726567697374657265642e000000000081525060200191505060405180910390fd5b60008060003373ffffffffffffffffffffffffffffffffffffffff1673ffffffffffffffffffffffffffffffffffffffff16815260200190815260200160002090508181600201908051906020019061053c929190610d65565b507f67173c9743aa53c0dfb467cf10bf3017a7c39dc10284665292c726729746522b33604051808273ffffffffffffffffffffffffffffffffffffffff1673ffffffffffffffffffffffffffffffffffffffff16815260200191505060405180910390a15050565b6000602052806000526040600020600091509050806000018054600181600116156101000203166002900480601f0160208091040260200160405190810160405280929190818152602001828054600181600116156101000203166002900480156106505780601f1061062557610100808354040283529160200191610650565b820191906000526020600020905b81548152906001019060200180831161063357829003601f168201915b5050505050908060010160009054906101000a900467ffffffffffffffff1690806002018054600181600116156101000203166002900480601f0160208091040260200160405190810160405280929190818152602001828054600181600116156101000203166002900480156107085780601f106106dd57610100808354040283529160200191610708565b820191906000526020600020905b8154815290600101906020018083116106eb57829003601f168201915b5050505050908060030154908060040160009054906101000a900460ff16905085565b60008060003373ffffffffffffffffffffffffffffffffffffffff1673ffffffffffffffffffffffffffffffffffffffff16815260200190815260200160002060040160009054906101000a900460ff16905090565b816000803373ffffffffffffffffffffffffffffffffffffffff1673ffffffffffffffffffffffffffffffffffffffff16815260200190815260200160002060000190805190602001906107d6929190610d65565b50806000803373ffffffffffffffffffffffffffffffffffffffff1673ffffffffffffffffffffffffffffffffffffffff16815260200190815260200160002060010160006101000a81548167ffffffffffffffff021916908367ffffffffffffffff160217905550604051806020016040528060008152506000803373ffffffffffffffffffffffffffffffffffffffff1673ffffffffffffffffffffffffffffffffffffffff16815260200190815260200160002060020190805190602001906108a3929190610d65565b5060016000803373ffffffffffffffffffffffffffffffffffffffff1673ffffffffffffffffffffffffffffffffffffffff16815260200190815260200160002060040160006101000a81548160ff02191690831515021790555060018167ffffffffffffffff1614156109c2576001803390806001815401808255809150509060018203906000526020600020016000909192909190916101000a81548173ffffffffffffffffffffffffffffffffffffffff021916908373ffffffffffffffffffffffffffffffffffffffff160217905550036000803373ffffffffffffffffffffffffffffffffffffffff1673ffffffffffffffffffffffffffffffffffffffff16815260200190815260200160002060030181905550610a70565b600160023390806001815401808255809150509060018203906000526020600020016000909192909190916101000a81548173ffffffffffffffffffffffffffffffffffffffff021916908373ffffffffffffffffffffffffffffffffffffffff160217905550036000803373ffffffffffffffffffffffffffffffffffffffff1673ffffffffffffffffffffffffffffffffffffffff168152602001908152602001600020600301819055505b7f58b4a17395421464b17172a3ec79bf9869233a44f8681632221e1030e8eba00a33604051808273ffffffffffffffffffffffffffffffffffffffff1673ffffffffffffffffffffffffffffffffffffffff16815260200191505060405180910390a15050565b6060806000610ae461072b565b610b56576040517f08c379a000000000000000000000000000000000000000000000000000000000815260040180806020018281038252601b8152602001807f41646472657373206d75737420626520726567697374657265642e000000000081525060200191505060405180910390fd5b610b5e610de5565b6000803373ffffffffffffffffffffffffffffffffffffffff1673ffffffffffffffffffffffffffffffffffffffff1681526020019081526020016000206040518060a0016040529081600082018054600181600116156101000203166002900480601f016020809104026020016040519081016040528092919081815260200182805460018160011615610100020316600290048015610c405780601f10610c1557610100808354040283529160200191610c40565b820191906000526020600020905b815481529060010190602001808311610c2357829003601f168201915b505050505081526020016001820160009054906101000a900467ffffffffffffffff1667ffffffffffffffff1667ffffffffffffffff168152602001600282018054600181600116156101000203166002900480601f016020809104026020016040519081016040528092919081815260200182805460018160011615610100020316600290048015610d145780601f10610ce957610100808354040283529160200191610d14565b820191906000526020600020905b815481529060010190602001808311610cf757829003601f168201915b50505050508152602001600382015481526020016004820160009054906101000a900460ff161515151581525050905080600001518160400151826020015182925081915093509350935050909192565b828054600181600116156101000203166002900490600052602060002090601f016020900481019282601f10610da657805160ff1916838001178555610dd4565b82800160010185558215610dd4579182015b82811115610dd3578251825591602001919060010190610db8565b5b509050610de19190610e20565b5090565b6040518060a0016040528060608152602001600067ffffffffffffffff16815260200160608152602001600081526020016000151581525090565b610e4291905b80821115610e3e576000816000905550600101610e26565b5090565b9056fea265627a7a723158201f18051b5b62679d3b6b74396363d549d496bfa90c64ac8c2d7a464f9bc08e6c64736f6c63430005100032",
  "source": "pragma solidity ^0.5.0;\r\n\r\ncontract AgencyApp {\r\n\r\n    event OnAccountAdd(address userAddr);\r\n    event OnAccountUpdate(address userAddr);\r\n\r\n    struct Account {\r\n        string name;\r\n        uint64 acc_type;\r\n        string content;\r\n        // Data[] data_block;\r\n        uint idx;\r\n        bool isValid;\r\n    }\r\n\r\n    struct Data {\r\n        string content;\r\n    }\r\n\r\n    mapping(address => Account) public accounts;\r\n    address[] personal;\r\n    address[] company;\r\n    // Modifier\r\n    modifier isValid() {\r\n        require(isValidAccount(), \"Address must be registered.\");\r\n        _;\r\n    }\r\n\r\n    function isValidAccount() public view returns(bool) {\r\n        return accounts[msg.sender].isValid;\r\n    }\r\n\r\n    function addAccount(string memory _name, uint64 _acc_type) public {\r\n        accounts[msg.sender].name = _name;\r\n        accounts[msg.sender].acc_type = _acc_type;\r\n        accounts[msg.sender].content = \"\";\r\n        accounts[msg.sender].isValid = true;\r\n        if (_acc_type == 1) {\r\n            accounts[msg.sender].idx = personal.push(msg.sender)-1;\r\n        }\r\n        else {\r\n            accounts[msg.sender].idx = company.push(msg.sender)-1;\r\n        }\r\n\r\n        emit OnAccountAdd(msg.sender);\r\n    }\r\n\r\n    function getAccount() public view isValid()\r\n    returns(string memory _name, string memory _content,uint64 _acc_type) {\r\n        Account memory acc = accounts[msg.sender];\r\n        return(acc.name, acc.content, acc.acc_type);\r\n    } \r\n    \r\n    function updataAccount(string memory _content) public isValid() {\r\n        Account storage acc = accounts[msg.sender];\r\n        acc.content = _content;\r\n        emit OnAccountUpdate(msg.sender);\r\n    }\r\n\r\n}",
  "sourcePath": "C:/Users/chung/Documents/大四上資料夾/網路與多媒體實驗/nmLab-final/contracts/AgencyApp.sol",
  "compiler": {
    "name": "solc",
    "version": "0.5.16+commit.9c3226ce.Emscripten.clang"
  },
  "schemaVersion": "3.3.3",
  "updatedAt": "2020-12-22T09:56:55.365Z",
  "networkType": "ethereum",
  "devdoc": {
    "methods": {}
  },
  "userdoc": {
    "methods": {}
  }
}