{
  "contractName": "AgencyApp",
  "abi": [
    {
      "anonymous": false,
      "inputs": [
        {
          "indexed": false,
          "internalType": "address",
          "name": "userAddr",
          "type": "address"
        },
        {
          "indexed": false,
          "internalType": "string",
          "name": "userType",
          "type": "string"
        }
      ],
      "name": "OnAccountAdd",
      "type": "event"
    },
    {
      "anonymous": false,
      "inputs": [
        {
          "indexed": false,
          "internalType": "address",
          "name": "userAddr",
          "type": "address"
        },
        {
          "indexed": false,
          "internalType": "string",
          "name": "userType",
          "type": "string"
        }
      ],
      "name": "OnAccountUpdate",
      "type": "event"
    },
    {
      "anonymous": false,
      "inputs": [
        {
          "indexed": false,
          "internalType": "address",
          "name": "userAddr",
          "type": "address"
        },
        {
          "indexed": false,
          "internalType": "uint16",
          "name": "newStatus",
          "type": "uint16"
        }
      ],
      "name": "OnApplicantStatusChange",
      "type": "event"
    },
    {
      "anonymous": false,
      "inputs": [
        {
          "indexed": false,
          "internalType": "address",
          "name": "applicant",
          "type": "address"
        },
        {
          "indexed": false,
          "internalType": "address",
          "name": "company",
          "type": "address"
        },
        {
          "indexed": false,
          "internalType": "uint256",
          "name": "jobIdx",
          "type": "uint256"
        },
        {
          "indexed": false,
          "internalType": "bool",
          "name": "direction",
          "type": "bool"
        }
      ],
      "name": "OnInvitationAdd",
      "type": "event"
    },
    {
      "anonymous": false,
      "inputs": [
        {
          "indexed": false,
          "internalType": "address",
          "name": "applicant",
          "type": "address"
        },
        {
          "indexed": false,
          "internalType": "address",
          "name": "company",
          "type": "address"
        },
        {
          "indexed": false,
          "internalType": "uint256",
          "name": "jobIdx",
          "type": "uint256"
        },
        {
          "indexed": false,
          "internalType": "bool",
          "name": "direction",
          "type": "bool"
        },
        {
          "indexed": false,
          "internalType": "uint16",
          "name": "status",
          "type": "uint16"
        }
      ],
      "name": "OnInvitationUpdate",
      "type": "event"
    },
    {
      "anonymous": false,
      "inputs": [
        {
          "indexed": false,
          "internalType": "address",
          "name": "userAddr",
          "type": "address"
        },
        {
          "indexed": false,
          "internalType": "uint256",
          "name": "jobIdx",
          "type": "uint256"
        }
      ],
      "name": "OnJobAdd",
      "type": "event"
    },
    {
      "anonymous": false,
      "inputs": [
        {
          "indexed": false,
          "internalType": "address",
          "name": "userAddr",
          "type": "address"
        },
        {
          "indexed": false,
          "internalType": "uint256",
          "name": "jobIdx",
          "type": "uint256"
        },
        {
          "indexed": false,
          "internalType": "uint16",
          "name": "newStatus",
          "type": "uint16"
        }
      ],
      "name": "OnJobStatusChange",
      "type": "event"
    },
    {
      "anonymous": false,
      "inputs": [
        {
          "indexed": false,
          "internalType": "address",
          "name": "userAddr",
          "type": "address"
        },
        {
          "indexed": false,
          "internalType": "uint256",
          "name": "jobIdx",
          "type": "uint256"
        }
      ],
      "name": "OnJobUpdate",
      "type": "event"
    },
    {
      "anonymous": false,
      "inputs": [
        {
          "indexed": false,
          "internalType": "address",
          "name": "applicant",
          "type": "address"
        },
        {
          "indexed": false,
          "internalType": "address",
          "name": "company",
          "type": "address"
        },
        {
          "indexed": false,
          "internalType": "uint256",
          "name": "jobIdx",
          "type": "uint256"
        },
        {
          "indexed": false,
          "internalType": "uint256",
          "name": "payment",
          "type": "uint256"
        }
      ],
      "name": "OnOfferAdd",
      "type": "event"
    },
    {
      "anonymous": false,
      "inputs": [
        {
          "indexed": false,
          "internalType": "address",
          "name": "applicant",
          "type": "address"
        },
        {
          "indexed": false,
          "internalType": "address",
          "name": "company",
          "type": "address"
        },
        {
          "indexed": false,
          "internalType": "uint256",
          "name": "jobIdx",
          "type": "uint256"
        },
        {
          "indexed": false,
          "internalType": "uint256",
          "name": "payment",
          "type": "uint256"
        },
        {
          "indexed": false,
          "internalType": "uint16",
          "name": "status",
          "type": "uint16"
        }
      ],
      "name": "OnOfferUpdate",
      "type": "event"
    },
    {
      "constant": false,
      "inputs": [
        {
          "internalType": "string",
          "name": "_title",
          "type": "string"
        },
        {
          "internalType": "string",
          "name": "_description",
          "type": "string"
        },
        {
          "internalType": "uint256",
          "name": "_num",
          "type": "uint256"
        }
      ],
      "name": "AddJob",
      "outputs": [],
      "payable": false,
      "stateMutability": "nonpayable",
      "type": "function"
    },
    {
      "constant": true,
      "inputs": [],
      "name": "checkMsgsender",
      "outputs": [
        {
          "internalType": "address",
          "name": "",
          "type": "address"
        }
      ],
      "payable": false,
      "stateMutability": "view",
      "type": "function"
    },
    {
      "constant": false,
      "inputs": [
        {
          "internalType": "uint256",
          "name": "_jobIdx",
          "type": "uint256"
        },
        {
          "internalType": "uint256",
          "name": "_addrIdx",
          "type": "uint256"
        }
      ],
      "name": "deleteEmployee",
      "outputs": [],
      "payable": false,
      "stateMutability": "nonpayable",
      "type": "function"
    },
    {
      "constant": true,
      "inputs": [
        {
          "internalType": "uint256",
          "name": "_idx",
          "type": "uint256"
        }
      ],
      "name": "getApplicantAddr",
      "outputs": [
        {
          "internalType": "address",
          "name": "_addr",
          "type": "address"
        }
      ],
      "payable": false,
      "stateMutability": "view",
      "type": "function"
    },
    {
      "constant": true,
      "inputs": [
        {
          "internalType": "address",
          "name": "_addr",
          "type": "address"
        }
      ],
      "name": "getApplicantStatus",
      "outputs": [
        {
          "internalType": "uint256",
          "name": "_status",
          "type": "uint256"
        }
      ],
      "payable": false,
      "stateMutability": "view",
      "type": "function"
    },
    {
      "constant": true,
      "inputs": [],
      "name": "getApplicantsNum",
      "outputs": [
        {
          "internalType": "uint256",
          "name": "_len",
          "type": "uint256"
        }
      ],
      "payable": false,
      "stateMutability": "view",
      "type": "function"
    },
    {
      "constant": true,
      "inputs": [
        {
          "internalType": "address",
          "name": "_addr",
          "type": "address"
        },
        {
          "internalType": "uint256",
          "name": "_invPos",
          "type": "uint256"
        }
      ],
      "name": "getApplincantInvIdx",
      "outputs": [
        {
          "internalType": "uint256",
          "name": "_invIdx",
          "type": "uint256"
        }
      ],
      "payable": false,
      "stateMutability": "view",
      "type": "function"
    },
    {
      "constant": true,
      "inputs": [
        {
          "internalType": "address",
          "name": "_addr",
          "type": "address"
        }
      ],
      "name": "getApplincantInvNum",
      "outputs": [
        {
          "internalType": "uint256",
          "name": "_num",
          "type": "uint256"
        }
      ],
      "payable": false,
      "stateMutability": "view",
      "type": "function"
    },
    {
      "constant": true,
      "inputs": [
        {
          "internalType": "address",
          "name": "_addr",
          "type": "address"
        },
        {
          "internalType": "uint256",
          "name": "_offPos",
          "type": "uint256"
        }
      ],
      "name": "getApplincantOffIdx",
      "outputs": [
        {
          "internalType": "uint256",
          "name": "_offIdx",
          "type": "uint256"
        }
      ],
      "payable": false,
      "stateMutability": "view",
      "type": "function"
    },
    {
      "constant": true,
      "inputs": [
        {
          "internalType": "address",
          "name": "_addr",
          "type": "address"
        }
      ],
      "name": "getApplincantOffNum",
      "outputs": [
        {
          "internalType": "uint256",
          "name": "_num",
          "type": "uint256"
        }
      ],
      "payable": false,
      "stateMutability": "view",
      "type": "function"
    },
    {
      "constant": true,
      "inputs": [
        {
          "internalType": "uint256",
          "name": "_idx",
          "type": "uint256"
        }
      ],
      "name": "getCompanyAddr",
      "outputs": [
        {
          "internalType": "address",
          "name": "_addr",
          "type": "address"
        }
      ],
      "payable": false,
      "stateMutability": "view",
      "type": "function"
    },
    {
      "constant": true,
      "inputs": [
        {
          "internalType": "address",
          "name": "_addr",
          "type": "address"
        }
      ],
      "name": "getCompanyJobNum",
      "outputs": [
        {
          "internalType": "uint256",
          "name": "_len",
          "type": "uint256"
        }
      ],
      "payable": false,
      "stateMutability": "view",
      "type": "function"
    },
    {
      "constant": true,
      "inputs": [],
      "name": "getCompanyNum",
      "outputs": [
        {
          "internalType": "uint256",
          "name": "_len",
          "type": "uint256"
        }
      ],
      "payable": false,
      "stateMutability": "view",
      "type": "function"
    },
    {
      "constant": true,
      "inputs": [
        {
          "internalType": "address",
          "name": "_addr",
          "type": "address"
        },
        {
          "internalType": "uint256",
          "name": "_jobIdx",
          "type": "uint256"
        }
      ],
      "name": "getJobContent",
      "outputs": [
        {
          "internalType": "string",
          "name": "_title",
          "type": "string"
        },
        {
          "internalType": "string",
          "name": "_descri",
          "type": "string"
        },
        {
          "internalType": "uint256",
          "name": "_number",
          "type": "uint256"
        },
        {
          "internalType": "uint256",
          "name": "_remain",
          "type": "uint256"
        },
        {
          "internalType": "uint256",
          "name": "_status",
          "type": "uint256"
        }
      ],
      "payable": false,
      "stateMutability": "view",
      "type": "function"
    },
    {
      "constant": true,
      "inputs": [
        {
          "internalType": "address",
          "name": "_addr",
          "type": "address"
        },
        {
          "internalType": "uint256",
          "name": "_jobIdx",
          "type": "uint256"
        },
        {
          "internalType": "uint256",
          "name": "_invPos",
          "type": "uint256"
        }
      ],
      "name": "getJobInvIdx",
      "outputs": [
        {
          "internalType": "uint256",
          "name": "_invIdx",
          "type": "uint256"
        }
      ],
      "payable": false,
      "stateMutability": "view",
      "type": "function"
    },
    {
      "constant": true,
      "inputs": [
        {
          "internalType": "address",
          "name": "_addr",
          "type": "address"
        },
        {
          "internalType": "uint256",
          "name": "_jobIdx",
          "type": "uint256"
        }
      ],
      "name": "getJobInvNum",
      "outputs": [
        {
          "internalType": "uint256",
          "name": "_num",
          "type": "uint256"
        }
      ],
      "payable": false,
      "stateMutability": "view",
      "type": "function"
    },
    {
      "constant": true,
      "inputs": [
        {
          "internalType": "address",
          "name": "_addr",
          "type": "address"
        },
        {
          "internalType": "uint256",
          "name": "_jobIdx",
          "type": "uint256"
        },
        {
          "internalType": "uint256",
          "name": "_offPos",
          "type": "uint256"
        }
      ],
      "name": "getJobOffIdx",
      "outputs": [
        {
          "internalType": "uint256",
          "name": "_offIdx",
          "type": "uint256"
        }
      ],
      "payable": false,
      "stateMutability": "view",
      "type": "function"
    },
    {
      "constant": true,
      "inputs": [
        {
          "internalType": "address",
          "name": "_addr",
          "type": "address"
        },
        {
          "internalType": "uint256",
          "name": "_jobIdx",
          "type": "uint256"
        }
      ],
      "name": "getJobOffNum",
      "outputs": [
        {
          "internalType": "uint256",
          "name": "_num",
          "type": "uint256"
        }
      ],
      "payable": false,
      "stateMutability": "view",
      "type": "function"
    },
    {
      "constant": true,
      "inputs": [
        {
          "internalType": "address",
          "name": "_addr",
          "type": "address"
        },
        {
          "internalType": "uint256",
          "name": "_jobIdx",
          "type": "uint256"
        }
      ],
      "name": "getJobRemain",
      "outputs": [
        {
          "internalType": "uint256",
          "name": "",
          "type": "uint256"
        }
      ],
      "payable": false,
      "stateMutability": "view",
      "type": "function"
    },
    {
      "constant": true,
      "inputs": [
        {
          "internalType": "address",
          "name": "_addr",
          "type": "address"
        }
      ],
      "name": "isApplicant",
      "outputs": [
        {
          "internalType": "bool",
          "name": "",
          "type": "bool"
        }
      ],
      "payable": false,
      "stateMutability": "view",
      "type": "function"
    },
    {
      "constant": true,
      "inputs": [
        {
          "internalType": "address",
          "name": "_addr",
          "type": "address"
        }
      ],
      "name": "isCompany",
      "outputs": [
        {
          "internalType": "bool",
          "name": "",
          "type": "bool"
        }
      ],
      "payable": false,
      "stateMutability": "view",
      "type": "function"
    },
    {
      "constant": false,
      "inputs": [
        {
          "internalType": "uint256",
          "name": "_newStatus",
          "type": "uint256"
        }
      ],
      "name": "updateApplicantStatus",
      "outputs": [],
      "payable": false,
      "stateMutability": "nonpayable",
      "type": "function"
    },
    {
      "constant": false,
      "inputs": [
        {
          "internalType": "uint256",
          "name": "_jobIdx",
          "type": "uint256"
        },
        {
          "internalType": "string",
          "name": "_title",
          "type": "string"
        },
        {
          "internalType": "string",
          "name": "_description",
          "type": "string"
        },
        {
          "internalType": "uint256",
          "name": "_num",
          "type": "uint256"
        }
      ],
      "name": "updateJob",
      "outputs": [],
      "payable": false,
      "stateMutability": "nonpayable",
      "type": "function"
    },
    {
      "constant": false,
      "inputs": [
        {
          "internalType": "uint256",
          "name": "_jobIdx",
          "type": "uint256"
        },
        {
          "internalType": "uint256",
          "name": "_newStatus",
          "type": "uint256"
        }
      ],
      "name": "updateJobStatus",
      "outputs": [],
      "payable": false,
      "stateMutability": "nonpayable",
      "type": "function"
    },
    {
      "constant": true,
      "inputs": [
        {
          "internalType": "address",
          "name": "_addr",
          "type": "address"
        }
      ],
      "name": "isRegistered",
      "outputs": [
        {
          "internalType": "bool",
          "name": "",
          "type": "bool"
        }
      ],
      "payable": false,
      "stateMutability": "view",
      "type": "function"
    },
    {
      "constant": false,
      "inputs": [
        {
          "internalType": "string",
          "name": "_name",
          "type": "string"
        },
        {
          "internalType": "bool",
          "name": "_type",
          "type": "bool"
        }
      ],
      "name": "addAcc",
      "outputs": [],
      "payable": false,
      "stateMutability": "nonpayable",
      "type": "function"
    },
    {
      "constant": false,
      "inputs": [
        {
          "internalType": "string",
          "name": "_content",
          "type": "string"
        },
        {
          "internalType": "bool",
          "name": "_type",
          "type": "bool"
        }
      ],
      "name": "updataAccContent",
      "outputs": [],
      "payable": false,
      "stateMutability": "nonpayable",
      "type": "function"
    },
    {
      "constant": true,
      "inputs": [
        {
          "internalType": "address",
          "name": "_addr",
          "type": "address"
        }
      ],
      "name": "getAddrInfo",
      "outputs": [
        {
          "internalType": "string",
          "name": "_name",
          "type": "string"
        },
        {
          "internalType": "string",
          "name": "_content",
          "type": "string"
        },
        {
          "internalType": "bool",
          "name": "_type",
          "type": "bool"
        }
      ],
      "payable": false,
      "stateMutability": "view",
      "type": "function"
    },
    {
      "constant": true,
      "inputs": [
        {
          "internalType": "address",
          "name": "_applicant",
          "type": "address"
        },
        {
          "internalType": "address",
          "name": "_company",
          "type": "address"
        },
        {
          "internalType": "uint256",
          "name": "_jobIdx",
          "type": "uint256"
        }
      ],
      "name": "existActiveInv",
      "outputs": [
        {
          "internalType": "bool",
          "name": "",
          "type": "bool"
        }
      ],
      "payable": false,
      "stateMutability": "view",
      "type": "function"
    },
    {
      "constant": false,
      "inputs": [
        {
          "internalType": "address",
          "name": "_tarAddr",
          "type": "address"
        },
        {
          "internalType": "uint256",
          "name": "_jobIdx",
          "type": "uint256"
        },
        {
          "internalType": "string",
          "name": "_msg",
          "type": "string"
        },
        {
          "internalType": "bool",
          "name": "_dir",
          "type": "bool"
        }
      ],
      "name": "sendInvitation",
      "outputs": [],
      "payable": false,
      "stateMutability": "nonpayable",
      "type": "function"
    },
    {
      "constant": false,
      "inputs": [
        {
          "internalType": "uint256",
          "name": "_invIdx",
          "type": "uint256"
        },
        {
          "internalType": "uint256",
          "name": "_newStatus",
          "type": "uint256"
        }
      ],
      "name": "updateInvitationStatus",
      "outputs": [],
      "payable": false,
      "stateMutability": "nonpayable",
      "type": "function"
    },
    {
      "constant": true,
      "inputs": [
        {
          "internalType": "uint256",
          "name": "_invIdx",
          "type": "uint256"
        }
      ],
      "name": "getInvitationInfo",
      "outputs": [
        {
          "internalType": "address",
          "name": "_applicants",
          "type": "address"
        },
        {
          "internalType": "address",
          "name": "_company",
          "type": "address"
        },
        {
          "internalType": "uint256",
          "name": "_jobIdx",
          "type": "uint256"
        },
        {
          "internalType": "string",
          "name": "_msg",
          "type": "string"
        },
        {
          "internalType": "bool",
          "name": "_dir",
          "type": "bool"
        },
        {
          "internalType": "uint256",
          "name": "_status",
          "type": "uint256"
        },
        {
          "internalType": "uint256",
          "name": "_createtime",
          "type": "uint256"
        },
        {
          "internalType": "uint256",
          "name": "_dur",
          "type": "uint256"
        }
      ],
      "payable": false,
      "stateMutability": "view",
      "type": "function"
    },
    {
      "constant": true,
      "inputs": [
        {
          "internalType": "uint256",
          "name": "_invIdx",
          "type": "uint256"
        }
      ],
      "name": "isExpiredInv",
      "outputs": [
        {
          "internalType": "bool",
          "name": "",
          "type": "bool"
        }
      ],
      "payable": false,
      "stateMutability": "view",
      "type": "function"
    },
    {
      "constant": true,
      "inputs": [
        {
          "internalType": "address",
          "name": "_applicant",
          "type": "address"
        },
        {
          "internalType": "address",
          "name": "_company",
          "type": "address"
        },
        {
          "internalType": "uint256",
          "name": "_jobIdx",
          "type": "uint256"
        }
      ],
      "name": "canSendOffer",
      "outputs": [
        {
          "internalType": "bool",
          "name": "",
          "type": "bool"
        }
      ],
      "payable": false,
      "stateMutability": "view",
      "type": "function"
    },
    {
      "constant": false,
      "inputs": [
        {
          "internalType": "address",
          "name": "_tarAddr",
          "type": "address"
        },
        {
          "internalType": "uint256",
          "name": "_jobIdx",
          "type": "uint256"
        },
        {
          "internalType": "uint256",
          "name": "_payment",
          "type": "uint256"
        },
        {
          "internalType": "string",
          "name": "_msg",
          "type": "string"
        }
      ],
      "name": "sendOffer",
      "outputs": [],
      "payable": false,
      "stateMutability": "nonpayable",
      "type": "function"
    },
    {
      "constant": false,
      "inputs": [
        {
          "internalType": "uint256",
          "name": "_offIdx",
          "type": "uint256"
        },
        {
          "internalType": "uint256",
          "name": "_newStatus",
          "type": "uint256"
        }
      ],
      "name": "updateOfferStatus",
      "outputs": [],
      "payable": false,
      "stateMutability": "nonpayable",
      "type": "function"
    },
    {
      "constant": false,
      "inputs": [
        {
          "internalType": "uint256",
          "name": "_offIdx",
          "type": "uint256"
        },
        {
          "internalType": "uint256",
          "name": "_newPayment",
          "type": "uint256"
        }
      ],
      "name": "updateOfferPayment",
      "outputs": [],
      "payable": false,
      "stateMutability": "nonpayable",
      "type": "function"
    },
    {
      "constant": false,
      "inputs": [
        {
          "internalType": "uint256",
          "name": "_offIdx",
          "type": "uint256"
        }
      ],
      "name": "closeOffer",
      "outputs": [],
      "payable": false,
      "stateMutability": "nonpayable",
      "type": "function"
    },
    {
      "constant": true,
      "inputs": [
        {
          "internalType": "uint256",
          "name": "_offIdx",
          "type": "uint256"
        }
      ],
      "name": "getOfferInfo",
      "outputs": [
        {
          "internalType": "address",
          "name": "_applicants",
          "type": "address"
        },
        {
          "internalType": "address",
          "name": "_company",
          "type": "address"
        },
        {
          "internalType": "uint256",
          "name": "_jobIdx",
          "type": "uint256"
        },
        {
          "internalType": "string",
          "name": "_msg",
          "type": "string"
        },
        {
          "internalType": "uint256",
          "name": "_payment",
          "type": "uint256"
        },
        {
          "internalType": "uint256",
          "name": "_status",
          "type": "uint256"
        },
        {
          "internalType": "uint256",
          "name": "_createTime",
          "type": "uint256"
        },
        {
          "internalType": "uint256",
          "name": "_updateTime",
          "type": "uint256"
        }
      ],
      "payable": false,
      "stateMutability": "view",
      "type": "function"
    },
    {
      "constant": true,
      "inputs": [
        {
          "internalType": "uint256",
          "name": "_offIdx",
          "type": "uint256"
        }
      ],
      "name": "isExpiredOff",
      "outputs": [
        {
          "internalType": "bool",
          "name": "",
          "type": "bool"
        }
      ],
      "payable": false,
      "stateMutability": "view",
      "type": "function"
    },
    {
      "constant": true,
      "inputs": [
        {
          "internalType": "uint256",
          "name": "_offIdx",
          "type": "uint256"
        }
      ],
      "name": "inCooldownOff",
      "outputs": [
        {
          "internalType": "bool",
          "name": "",
          "type": "bool"
        }
      ],
      "payable": false,
      "stateMutability": "view",
      "type": "function"
    }
  ],
  "bytecode": "0x608060405234801561001057600080fd5b50615e4380620000216000396000f3fe608060405234801561001057600080fd5b50600436106102535760003560e01c80637b3adae111610146578063d80065a0116100c3578063f3d041eb11610087578063f3d041eb14611578578063f4310d49146115d0578063f8c686d91461162c578063f9357c5f14611684578063fc9d9727146116dc578063fda066231461173457610253565b8063d80065a01461134a578063df47ad8e14611382578063e3082110146113e4578063eb03082714611412578063ec49660f1461143057610253565b8063949c7d141161010a578063949c7d141461116e578063975b0f58146111dc578063a0406ce214611248578063c3c5a547146112a4578063c47c0ac01461130057610253565b80637b3adae114610d9057806388fcfe6d14610e575780638a625ed214610f465780638c0c0d28146110a25780638fa2a00c1461112857610253565b80633741ae9c116101d457806355f9c1e41161019857806355f9c1e414610bba5780635687fe8114610c1c5780636a2fe8c314610c545780636ef8720014610cc057806377dac67814610d2257610253565b80633741ae9c146107525780633958a969146108865780633d1f145d146108e85780634232d74314610a4e578063543d3cef14610a8657610253565b8063207cc8591161021b578063207cc859146103ec5780632a1da982146104245780632f2ea1581461055457806331d6d32b1461061b57806332543fa91461066157610253565b806305477ddf14610258578063101cb60a14610286578063119b1af7146102cc578063175ae5181461032e5780631d614b59146103b4575b600080fd5b6102846004803603602081101561026e57600080fd5b8101908080359060200190929190505050611752565b005b6102b26004803603602081101561029c57600080fd5b8101908080359060200190929190505050611aef565b604051808215151515815260200191505060405180910390f35b610318600480360360408110156102e257600080fd5b81019080803573ffffffffffffffffffffffffffffffffffffffff16906020019092919080359060200190929190505050611b50565b6040518082815260200191505060405180910390f35b61039a6004803603606081101561034457600080fd5b81019080803573ffffffffffffffffffffffffffffffffffffffff169060200190929190803573ffffffffffffffffffffffffffffffffffffffff16906020019092919080359060200190929190505050611be5565b604051808215151515815260200191505060405180910390f35b6103ea600480360360408110156103ca57600080fd5b810190808035906020019092919080359060200190929190505050611ec8565b005b6104226004803603604081101561040257600080fd5b8101908080359060200190929190803590602001909291905050506121cb565b005b6104506004803603602081101561043a57600080fd5b81019080803590602001909291905050506122c4565b604051808973ffffffffffffffffffffffffffffffffffffffff1673ffffffffffffffffffffffffffffffffffffffff1681526020018873ffffffffffffffffffffffffffffffffffffffff1673ffffffffffffffffffffffffffffffffffffffff16815260200187815260200180602001868152602001858152602001848152602001838152602001828103825287818151815260200191508051906020019080838360005b838110156105125780820151818401526020810190506104f7565b50505050905090810190601f16801561053f5780820380516001836020036101000a031916815260200191505b50995050505050505050505060405180910390f35b6106196004803603604081101561056a57600080fd5b810190808035906020019064010000000081111561058757600080fd5b82018360208201111561059957600080fd5b803590602001918460018302840111640100000000831117156105bb57600080fd5b91908080601f016020809104026020016040519081016040528093929190818152602001838380828437600081840152601f19601f82011690508083019250505050505050919291929080351515906020019092919050505061243d565b005b6106476004803603602081101561063157600080fd5b81019080803590602001909291905050506124dc565b604051808215151515815260200191505060405180910390f35b6107506004803603608081101561067757600080fd5b81019080803573ffffffffffffffffffffffffffffffffffffffff16906020019092919080359060200190929190803590602001906401000000008111156106be57600080fd5b8201836020820111156106d057600080fd5b803590602001918460018302840111640100000000831117156106f257600080fd5b91908080601f016020809104026020016040519081016040528093929190818152602001838380828437600081840152601f19601f82011690508083019250505050505050919291929080351515906020019092919050505061253b565b005b6107946004803603602081101561076857600080fd5b81019080803573ffffffffffffffffffffffffffffffffffffffff16906020019092919050505061294b565b60405180806020018060200184151515158152602001838103835286818151815260200191508051906020019080838360005b838110156107e25780820151818401526020810190506107c7565b50505050905090810190601f16801561080f5780820380516001836020036101000a031916815260200191505b50838103825285818151815260200191508051906020019080838360005b8381101561084857808201518184015260208101905061082d565b50505050905090810190601f1680156108755780820380516001836020036101000a031916815260200191505b509550505050505060405180910390f35b6108d26004803603604081101561089c57600080fd5b81019080803573ffffffffffffffffffffffffffffffffffffffff16906020019092919080359060200190929190505050612a25565b6040518082815260200191505060405180910390f35b610a4c600480360360808110156108fe57600080fd5b81019080803590602001909291908035906020019064010000000081111561092557600080fd5b82018360208201111561093757600080fd5b8035906020019184600183028401116401000000008311171561095957600080fd5b91908080601f016020809104026020016040519081016040528093929190818152602001838380828437600081840152601f19601f820116905080830192505050505050509192919290803590602001906401000000008111156109bc57600080fd5b8201836020820111156109ce57600080fd5b803590602001918460018302840111640100000000831117156109f057600080fd5b91908080601f016020809104026020016040519081016040528093929190818152602001838380828437600081840152601f19601f82011690508083019250505050505050919291929080359060200190929190505050612a5a565b005b610a8460048036036040811015610a6457600080fd5b810190808035906020019092919080359060200190929190505050612b41565b005b610ab260048036036020811015610a9c57600080fd5b81019080803590602001909291905050506131b5565b604051808973ffffffffffffffffffffffffffffffffffffffff1673ffffffffffffffffffffffffffffffffffffffff1681526020018873ffffffffffffffffffffffffffffffffffffffff1673ffffffffffffffffffffffffffffffffffffffff1681526020018781526020018060200186151515158152602001858152602001848152602001838152602001828103825287818151815260200191508051906020019080838360005b83811015610b78578082015181840152602081019050610b5d565b50505050905090810190601f168015610ba55780820380516001836020036101000a031916815260200191505b50995050505050505050505060405180910390f35b610c0660048036036040811015610bd057600080fd5b81019080803573ffffffffffffffffffffffffffffffffffffffff16906020019092919080359060200190929190505050613400565b6040518082815260200191505060405180910390f35b610c5260048036036040811015610c3257600080fd5b810190808035906020019092919080359060200190929190505050613426565b005b610caa60048036036060811015610c6a57600080fd5b81019080803573ffffffffffffffffffffffffffffffffffffffff16906020019092919080359060200190929190803590602001909291905050506138f8565b6040518082815260200191505060405180910390f35b610d0c60048036036040811015610cd657600080fd5b81019080803573ffffffffffffffffffffffffffffffffffffffff1690602001909291908035906020019092919050505061395a565b6040518082815260200191505060405180910390f35b610d4e60048036036020811015610d3857600080fd5b810190808035906020019092919050505061398f565b604051808273ffffffffffffffffffffffffffffffffffffffff1673ffffffffffffffffffffffffffffffffffffffff16815260200191505060405180910390f35b610e5560048036036040811015610da657600080fd5b8101908080359060200190640100000000811115610dc357600080fd5b820183602082011115610dd557600080fd5b80359060200191846001830284011164010000000083111715610df757600080fd5b91908080601f016020809104026020016040519081016040528093929190818152602001838380828437600081840152601f19601f8201169050808301925050505050505091929192908035151590602001909291905050506139ec565b005b610f4460048036036080811015610e6d57600080fd5b81019080803573ffffffffffffffffffffffffffffffffffffffff169060200190929190803590602001909291908035906020019092919080359060200190640100000000811115610ebe57600080fd5b820183602082011115610ed057600080fd5b80359060200191846001830284011164010000000083111715610ef257600080fd5b91908080601f016020809104026020016040519081016040528093929190818152602001838380828437600081840152601f19601f820116905080830192505050505050509192919290505050613a8a565b005b6110a060048036036060811015610f5c57600080fd5b8101908080359060200190640100000000811115610f7957600080fd5b820183602082011115610f8b57600080fd5b80359060200191846001830284011164010000000083111715610fad57600080fd5b91908080601f016020809104026020016040519081016040528093929190818152602001838380828437600081840152601f19601f8201169050808301925050505050505091929192908035906020019064010000000081111561101057600080fd5b82018360208201111561102257600080fd5b8035906020019184600183028401116401000000008311171561104457600080fd5b91908080601f016020809104026020016040519081016040528093929190818152602001838380828437600081840152601f19601f82011690508083019250505050505050919291929080359060200190929190505050613ea0565b005b61110e600480360360608110156110b857600080fd5b81019080803573ffffffffffffffffffffffffffffffffffffffff169060200190929190803573ffffffffffffffffffffffffffffffffffffffff169060200190929190803590602001909291905050506140b7565b604051808215151515815260200191505060405180910390f35b6111546004803603602081101561113e57600080fd5b810190808035906020019092919050505061442e565b604051808215151515815260200191505060405180910390f35b61119a6004803603602081101561118457600080fd5b8101908080359060200190929190505050614494565b604051808273ffffffffffffffffffffffffffffffffffffffff1673ffffffffffffffffffffffffffffffffffffffff16815260200191505060405180910390f35b611232600480360360608110156111f257600080fd5b81019080803573ffffffffffffffffffffffffffffffffffffffff16906020019092919080359060200190929190803590602001909291905050506144f1565b6040518082815260200191505060405180910390f35b61128a6004803603602081101561125e57600080fd5b81019080803573ffffffffffffffffffffffffffffffffffffffff169060200190929190505050614553565b604051808215151515815260200191505060405180910390f35b6112e6600480360360208110156112ba57600080fd5b81019080803573ffffffffffffffffffffffffffffffffffffffff1690602001909291905050506145ac565b604051808215151515815260200191505060405180910390f35b6113086145ce565b604051808273ffffffffffffffffffffffffffffffffffffffff1673ffffffffffffffffffffffffffffffffffffffff16815260200191505060405180910390f35b6113806004803603604081101561136057600080fd5b8101908080359060200190929190803590602001909291905050506145d6565b005b6113ce6004803603604081101561139857600080fd5b81019080803573ffffffffffffffffffffffffffffffffffffffff169060200190929190803590602001909291905050506146f5565b6040518082815260200191505060405180910390f35b611410600480360360208110156113fa57600080fd5b810190808035906020019092919050505061478a565b005b61141a6148aa565b6040518082815260200191505060405180910390f35b61147c6004803603604081101561144657600080fd5b81019080803573ffffffffffffffffffffffffffffffffffffffff169060200190929190803590602001909291905050506148b7565b604051808060200180602001868152602001858152602001848152602001838103835288818151815260200191508051906020019080838360005b838110156114d25780820151818401526020810190506114b7565b50505050905090810190601f1680156114ff5780820380516001836020036101000a031916815260200191505b50838103825287818151815260200191508051906020019080838360005b8381101561153857808201518184015260208101905061151d565b50505050905090810190601f1680156115655780820380516001836020036101000a031916815260200191505b5097505050505050505060405180910390f35b6115ba6004803603602081101561158e57600080fd5b81019080803573ffffffffffffffffffffffffffffffffffffffff169060200190929190505050614a60565b6040518082815260200191505060405180910390f35b611612600480360360208110156115e657600080fd5b81019080803573ffffffffffffffffffffffffffffffffffffffff169060200190929190505050614ac8565b604051808215151515815260200191505060405180910390f35b61166e6004803603602081101561164257600080fd5b81019080803573ffffffffffffffffffffffffffffffffffffffff169060200190929190505050614b20565b6040518082815260200191505060405180910390f35b6116c66004803603602081101561169a57600080fd5b81019080803573ffffffffffffffffffffffffffffffffffffffff169060200190929190505050614b97565b6040518082815260200191505060405180910390f35b61171e600480360360208110156116f257600080fd5b81019080803573ffffffffffffffffffffffffffffffffffffffff169060200190929190505050614bff565b6040518082815260200191505060405180910390f35b61173c614c68565b6040518082815260200191505060405180910390f35b600580549050816117638282614c75565b61176c57600080fd5b60006005848154811061177b57fe5b906000526020600020906009020190503373ffffffffffffffffffffffffffffffffffffffff168160020160009054906101000a900473ffffffffffffffffffffffffffffffffffffffff1673ffffffffffffffffffffffffffffffffffffffff16146117e757600080fd5b61199c8160405180610120016040529081600082015481526020016001820160009054906101000a900473ffffffffffffffffffffffffffffffffffffffff1673ffffffffffffffffffffffffffffffffffffffff1673ffffffffffffffffffffffffffffffffffffffff1681526020016002820160009054906101000a900473ffffffffffffffffffffffffffffffffffffffff1673ffffffffffffffffffffffffffffffffffffffff1673ffffffffffffffffffffffffffffffffffffffff16815260200160038201548152602001600482018054600181600116156101000203166002900480601f0160208091040260200160405190810160405280929190818152602001828054600181600116156101000203166002900480156119505780601f1061192557610100808354040283529160200191611950565b820191906000526020600020905b81548152906001019060200180831161193357829003601f168201915b505050505081526020016005820160009054906101000a900461ffff1661ffff1661ffff1681526020016006820154815260200160078201548152602001600882015481525050614c82565b6119a557600080fd5b600360048111156119b257fe5b8160050160006101000a81548161ffff021916908361ffff1602179055507f7d21cf33755183f57b773a25d19ab84fdb5714c2b7af73b82b200627f1eeff1f8160010160009054906101000a900473ffffffffffffffffffffffffffffffffffffffff168260020160009054906101000a900473ffffffffffffffffffffffffffffffffffffffff16836003015484600001548560050160009054906101000a900461ffff16604051808673ffffffffffffffffffffffffffffffffffffffff1673ffffffffffffffffffffffffffffffffffffffff1681526020018573ffffffffffffffffffffffffffffffffffffffff1673ffffffffffffffffffffffffffffffffffffffff1681526020018481526020018381526020018261ffff1661ffff1681526020019550505050505060405180910390a150505050565b600060048054905082611b028282614c75565b611b0b57600080fd5b611b3660048581548110611b1b57fe5b90600052602060002090600702016006015462093a80614cf0565b15611b445760019250611b49565b600092505b5050919050565b600082611b5c81614ac8565b611b6557600080fd5b60008060008673ffffffffffffffffffffffffffffffffffffffff1673ffffffffffffffffffffffffffffffffffffffff1681526020019081526020016000209050611bb8816006018054905085614c75565b611bc157600080fd5b806006018481548110611bd057fe5b90600052602060002001549250505092915050565b600083611bf181614ac8565b611bfa57600080fd5b83611c0481614553565b611c0d57600080fd5b6000611c198686614d00565b9050600080600090505b8260060180549050811015611eb757826006018181548110611c4157fe5b906000526020600020015491508873ffffffffffffffffffffffffffffffffffffffff1660048381548110611c7257fe5b906000526020600020906007020160000160009054906101000a900473ffffffffffffffffffffffffffffffffffffffff1673ffffffffffffffffffffffffffffffffffffffff16148015611e995750611e9860048381548110611cd257fe5b9060005260206000209060070201604051806101000160405290816000820160009054906101000a900473ffffffffffffffffffffffffffffffffffffffff1673ffffffffffffffffffffffffffffffffffffffff1673ffffffffffffffffffffffffffffffffffffffff1681526020016001820160009054906101000a900473ffffffffffffffffffffffffffffffffffffffff1673ffffffffffffffffffffffffffffffffffffffff1673ffffffffffffffffffffffffffffffffffffffff16815260200160028201548152602001600382018054600181600116156101000203166002900480601f016020809104026020016040519081016040528092919081815260200182805460018160011615610100020316600290048015611e3b5780601f10611e1057610100808354040283529160200191611e3b565b820191906000526020600020905b815481529060010190602001808311611e1e57829003601f168201915b505050505081526020016004820160009054906101000a900460ff161515151581526020016004820160019054906101000a900461ffff1661ffff1661ffff16815260200160058201548152602001600682015481525050614dd1565b5b15611eaa5760019550505050611ebf565b8080600101915050611c23565b506000945050505b50509392505050565b60058054905082611ed98282614c75565b611ee257600080fd5b83338073ffffffffffffffffffffffffffffffffffffffff1660058381548110611f0857fe5b906000526020600020906009020160020160009054906101000a900473ffffffffffffffffffffffffffffffffffffffff1673ffffffffffffffffffffffffffffffffffffffff1614611f5a57600080fd5b60006004811115611f6757fe5b61ffff1660058381548110611f7857fe5b906000526020600020906009020160050160009054906101000a900461ffff1661ffff161480611fe7575060026004811115611fb057fe5b61ffff1660058381548110611fc157fe5b906000526020600020906009020160050160009054906101000a900461ffff1661ffff16145b611ff057600080fd5b6120196005838154811061200057fe5b9060005260206000209060090201600701546001614cf0565b1561202357600080fd5b61204c6005838154811061203357fe5b9060005260206000209060090201600801546001614e1f565b1561205657600080fd5b60006005878154811061206557fe5b906000526020600020906009020190508581600001819055506000600481111561208b57fe5b8160050160006101000a81548161ffff021916908361ffff1602179055507f7d21cf33755183f57b773a25d19ab84fdb5714c2b7af73b82b200627f1eeff1f8160010160009054906101000a900473ffffffffffffffffffffffffffffffffffffffff168260020160009054906101000a900473ffffffffffffffffffffffffffffffffffffffff16836003015484600001548560050160009054906101000a900461ffff16604051808673ffffffffffffffffffffffffffffffffffffffff1673ffffffffffffffffffffffffffffffffffffffff1681526020018573ffffffffffffffffffffffffffffffffffffffff1673ffffffffffffffffffffffffffffffffffffffff1681526020018481526020018381526020018261ffff1661ffff1681526020019550505050505060405180910390a150505050505050565b336121d581614553565b6121de57600080fd5b6002808111156121ea57fe5b826121f58282614e2e565b6121fe57600080fd5b600061220a3387614d00565b9050848160040160006101000a81548161ffff021916908361ffff1602179055507f5c33f08dc801a360efd7d23e6adb47c6216cc8cee02946a56953b3849bf95d803382600501548360040160009054906101000a900461ffff16604051808473ffffffffffffffffffffffffffffffffffffffff1673ffffffffffffffffffffffffffffffffffffffff1681526020018381526020018261ffff1661ffff168152602001935050505060405180910390a1505050505050565b60008060006060600080600080600580549050896122e28282614c75565b6122eb57600080fd5b600060058c815481106122fa57fe5b906000526020600020906009020190508060010160009054906101000a900473ffffffffffffffffffffffffffffffffffffffff168160020160009054906101000a900473ffffffffffffffffffffffffffffffffffffffff1682600301548360040184600001548560050160009054906101000a900461ffff1661ffff1686600701548760080154848054600181600116156101000203166002900480601f0160208091040260200160405190810160405280929190818152602001828054600181600116156101000203166002900480156124185780601f106123ed57610100808354040283529160200191612418565b820191906000526020600020905b8154815290600101906020018083116123fb57829003601f168201915b505050505094509a509a509a509a509a509a509a509a50505050919395975091939597565b33612447816145ac565b6124b9576040517f08c379a000000000000000000000000000000000000000000000000000000000815260040180806020018281038252601b8152602001807f41646472657373206d75737420626520726567697374657265642e000000000081525060200191505060405180910390fd5b81156124cd576124c883614e3b565b6124d7565b6124d683614f4a565b5b505050565b6000600580549050826124ef8282614c75565b6124f857600080fd5b6125216005858154811061250857fe5b9060005260206000209060090201600701546001614cf0565b1561252f5760019250612534565b600092505b5050919050565b600080821561254f57859150339050612556565b3391508590505b612561818387611be5565b1561256b57600080fd5b60006125778387614d00565b905060008060008473ffffffffffffffffffffffffffffffffffffffff1673ffffffffffffffffffffffffffffffffffffffff1681526020019081526020016000209050600060028111156125c857fe5b61ffff168160020160009054906101000a900461ffff1661ffff16146125ed57600080fd5b600060028111156125fa57fe5b61ffff168260040160009054906101000a900461ffff1661ffff161461261f57600080fd5b81600201548260030180549050108061265d57506001600281111561264057fe5b61ffff168260040160009054906101000a900461ffff1661ffff16145b61266657600080fd5b61266e615a67565b6040518061010001604052808573ffffffffffffffffffffffffffffffffffffffff1681526020018673ffffffffffffffffffffffffffffffffffffffff1681526020018981526020018881526020018715158152602001600060038111156126d357fe5b61ffff1681526020016000815260200142815250905060016004829080600181540180825580915050906001820390600052602060002090600702016000909192909190915060008201518160000160006101000a81548173ffffffffffffffffffffffffffffffffffffffff021916908373ffffffffffffffffffffffffffffffffffffffff16021790555060208201518160010160006101000a81548173ffffffffffffffffffffffffffffffffffffffff021916908373ffffffffffffffffffffffffffffffffffffffff1602179055506040820151816002015560608201518160030190805190602001906127cd929190615ade565b5060808201518160040160006101000a81548160ff02191690831515021790555060a08201518160040160016101000a81548161ffff021916908361ffff16021790555060c0820151816005015560e082015181600601555050038160c0018181525050826006018160c001519080600181540180825580915050906001820390600052602060002001600090919290919091505550816005018160c0015190806001815401808255809150509060018203906000526020600020016000909192909190915055507f8d5524f5770b5dd53c0bbe01b49fb302d28a45750c41de379e39b222fed0d2de84868a89604051808573ffffffffffffffffffffffffffffffffffffffff1673ffffffffffffffffffffffffffffffffffffffff1681526020018473ffffffffffffffffffffffffffffffffffffffff1673ffffffffffffffffffffffffffffffffffffffff1681526020018381526020018215151515815260200194505050505060405180910390a1505050505050505050565b60608060008361295a816145ac565b6129cc576040517f08c379a000000000000000000000000000000000000000000000000000000000815260040180806020018281038252601b8152602001807f41646472657373206d75737420626520726567697374657265642e000000000081525060200191505060405180910390fd5b6060806129d887614ac8565b156129ff576129e68761505a565b8092508193505050818160019550955095505050612a1d565b612a08876151fd565b80925081935050508181600095509550955050505b509193909250565b600082612a3181614553565b612a3a57600080fd5b6000612a468585614d00565b905080600701805490509250505092915050565b33612a6481614553565b612a6d57600080fd5b6000612a793387614d00565b90508060030180549050831015612a8f57600080fd5b84816000019080519060200190612aa7929190615b5e565b5083816001019080519060200190612ac0929190615b5e565b508281600201819055507f9ec1e886b0c3d13f907ff3dfe28a5944b9ac6f9d9dce5616770673d700a241fa338260050154604051808373ffffffffffffffffffffffffffffffffffffffff1673ffffffffffffffffffffffffffffffffffffffff1681526020018281526020019250505060405180910390a1505050505050565b60058054905082612b528282614c75565b612b5b57600080fd5b600480811115612b6757fe5b83612b728282614e2e565b612b7b57600080fd5b85338073ffffffffffffffffffffffffffffffffffffffff1660058381548110612ba157fe5b906000526020600020906009020160010160009054906101000a900473ffffffffffffffffffffffffffffffffffffffff1673ffffffffffffffffffffffffffffffffffffffff1614612bf357600080fd5b60006004811115612c0057fe5b61ffff1660058381548110612c1157fe5b906000526020600020906009020160050160009054906101000a900461ffff1661ffff1614612c3f57600080fd5b612c6860058381548110612c4f57fe5b9060005260206000209060090201600701546001614cf0565b15612c7257600080fd5b600060058981548110612c8157fe5b90600052602060002090600902019050878160050160006101000a81548161ffff021916908361ffff16021790555060016004811115612cbd57fe5b61ffff168861ffff161415613091576000612d008260020160009054906101000a900473ffffffffffffffffffffffffffffffffffffffff168360030154614d00565b9050806003018260010160009054906101000a900473ffffffffffffffffffffffffffffffffffffffff1690806001815401808255809150509060018203906000526020600020016000909192909190916101000a81548173ffffffffffffffffffffffffffffffffffffffff021916908373ffffffffffffffffffffffffffffffffffffffff1602179055505060008060008460010160009054906101000a900473ffffffffffffffffffffffffffffffffffffffff1673ffffffffffffffffffffffffffffffffffffffff1673ffffffffffffffffffffffffffffffffffffffff168152602001908152602001600020905060016002811115612e0157fe5b8160020160006101000a81548161ffff021916908361ffff16021790555060008090505b816006018054905081101561308d5761301c6005836006018381548110612e4857fe5b906000526020600020015481548110612e5d57fe5b906000526020600020906009020160405180610120016040529081600082015481526020016001820160009054906101000a900473ffffffffffffffffffffffffffffffffffffffff1673ffffffffffffffffffffffffffffffffffffffff1673ffffffffffffffffffffffffffffffffffffffff1681526020016002820160009054906101000a900473ffffffffffffffffffffffffffffffffffffffff1673ffffffffffffffffffffffffffffffffffffffff1673ffffffffffffffffffffffffffffffffffffffff16815260200160038201548152602001600482018054600181600116156101000203166002900480601f016020809104026020016040519081016040528092919081815260200182805460018160011615610100020316600290048015612fd05780601f10612fa557610100808354040283529160200191612fd0565b820191906000526020600020905b815481529060010190602001808311612fb357829003601f168201915b505050505081526020016005820160009054906101000a900461ffff1661ffff1661ffff1681526020016006820154815260200160078201548152602001600882015481525050614c82565b15613080576003600481111561302e57fe5b600583600601838154811061303f57fe5b90600052602060002001548154811061305457fe5b906000526020600020906009020160050160006101000a81548161ffff021916908361ffff1602179055505b8080600101915050612e25565b5050505b7f7d21cf33755183f57b773a25d19ab84fdb5714c2b7af73b82b200627f1eeff1f8160010160009054906101000a900473ffffffffffffffffffffffffffffffffffffffff168260020160009054906101000a900473ffffffffffffffffffffffffffffffffffffffff16836003015484600001548560050160009054906101000a900461ffff16604051808673ffffffffffffffffffffffffffffffffffffffff1673ffffffffffffffffffffffffffffffffffffffff1681526020018573ffffffffffffffffffffffffffffffffffffffff1673ffffffffffffffffffffffffffffffffffffffff1681526020018481526020018381526020018261ffff1661ffff1681526020019550505050505060405180910390a1505050505050505050565b60008060006060600080600080600480549050896131d38282614c75565b6131dc57600080fd5b6131e4615a67565b60048c815481106131f157fe5b9060005260206000209060070201604051806101000160405290816000820160009054906101000a900473ffffffffffffffffffffffffffffffffffffffff1673ffffffffffffffffffffffffffffffffffffffff1673ffffffffffffffffffffffffffffffffffffffff1681526020016001820160009054906101000a900473ffffffffffffffffffffffffffffffffffffffff1673ffffffffffffffffffffffffffffffffffffffff1673ffffffffffffffffffffffffffffffffffffffff16815260200160028201548152602001600382018054600181600116156101000203166002900480601f01602080910402602001604051908101604052809291908181526020018280546001816001161561010002031660029004801561335a5780601f1061332f5761010080835404028352916020019161335a565b820191906000526020600020905b81548152906001019060200180831161333d57829003601f168201915b505050505081526020016004820160009054906101000a900460ff161515151581526020016004820160019054906101000a900461ffff1661ffff1661ffff168152602001600582015481526020016006820154815250509050806000015181602001518260400151836060015184608001518560a0015161ffff168660e0015162093a808494509a509a509a509a509a509a509a509a50505050919395975091939597565b60008061340d8484614d00565b9050806003018054905081600201540391505092915050565b600480549050826134378282614c75565b61344057600080fd5b833360006004838154811061345157fe5b9060005260206000209060070201905061361d81604051806101000160405290816000820160009054906101000a900473ffffffffffffffffffffffffffffffffffffffff1673ffffffffffffffffffffffffffffffffffffffff1673ffffffffffffffffffffffffffffffffffffffff1681526020016001820160009054906101000a900473ffffffffffffffffffffffffffffffffffffffff1673ffffffffffffffffffffffffffffffffffffffff1673ffffffffffffffffffffffffffffffffffffffff16815260200160028201548152602001600382018054600181600116156101000203166002900480601f0160208091040260200160405190810160405280929190818152602001828054600181600116156101000203166002900480156135c05780601f10613595576101008083540402835291602001916135c0565b820191906000526020600020905b8154815290600101906020018083116135a357829003601f168201915b505050505081526020016004820160009054906101000a900460ff161515151581526020016004820160019054906101000a900461ffff1661ffff1661ffff16815260200160058201548152602001600682015481525050614dd1565b61368f576040517f08c379a000000000000000000000000000000000000000000000000000000000815260040180806020018281038252601a8152602001807f5468697320696e7669746169746f6e206973206c6f636b65642100000000000081525060200191505060405180910390fd5b8060040160009054906101000a900460ff1615613707578173ffffffffffffffffffffffffffffffffffffffff168160010160009054906101000a900473ffffffffffffffffffffffffffffffffffffffff1673ffffffffffffffffffffffffffffffffffffffff161461370257600080fd5b613764565b8173ffffffffffffffffffffffffffffffffffffffff168160000160009054906101000a900473ffffffffffffffffffffffffffffffffffffffff1673ffffffffffffffffffffffffffffffffffffffff161461376357600080fd5b5b60038081111561377057fe5b8661377b8282614e2e565b61378457600080fd5b600060048a8154811061379357fe5b90600052602060002090600702019050888160040160016101000a81548161ffff021916908361ffff1602179055507fe9cb88df369c436b00b6f1fb58b649423484938fa6bfcdc6eccf8b5f21c8a6638160000160009054906101000a900473ffffffffffffffffffffffffffffffffffffffff168260010160009054906101000a900473ffffffffffffffffffffffffffffffffffffffff1683600201548460040160009054906101000a900460ff168560040160019054906101000a900461ffff16604051808673ffffffffffffffffffffffffffffffffffffffff1673ffffffffffffffffffffffffffffffffffffffff1681526020018573ffffffffffffffffffffffffffffffffffffffff1673ffffffffffffffffffffffffffffffffffffffff168152602001848152602001831515151581526020018261ffff1661ffff1681526020019550505050505060405180910390a150505050505050505050565b60008361390481614553565b61390d57600080fd5b60006139198686614d00565b905061392c816007018054905085614c75565b61393557600080fd5b80600701848154811061394457fe5b9060005260206000200154925050509392505050565b60008261396681614553565b61396f57600080fd5b600061397b8585614d00565b905080600601805490509250505092915050565b6000600380549050826139a28282614c75565b6139ab57600080fd5b600384815481106139b857fe5b9060005260206000200160009054906101000a900473ffffffffffffffffffffffffffffffffffffffff1692505050919050565b6139f5336145ac565b15613a68576040517f08c379a00000000000000000000000000000000000000000000000000000000081526004018080602001828103825260168152602001807f4164647265737320697320726567697374657265642e0000000000000000000081525060200191505060405180910390fd5b8015613a7c57613a77826153d9565b613a86565b613a858261563c565b5b5050565b83613a9481614ac8565b613a9d57600080fd5b33613aa781614553565b613ab057600080fd5b600033905060008790506000613ac68389614d00565b905060008060008473ffffffffffffffffffffffffffffffffffffffff1673ffffffffffffffffffffffffffffffffffffffff1681526020019081526020016000209050613b1583858b6140b7565b15613b1f57600080fd5b60006002811115613b2c57fe5b61ffff168160020160009054906101000a900461ffff1661ffff1614613b5157600080fd5b60006002811115613b5e57fe5b61ffff168260040160009054906101000a900461ffff1661ffff1614613b8357600080fd5b816002015482600301805490501115613b9b57600080fd5b6000613ba68361583b565b90508260030180549050836002015403811115613bc257600080fd5b613bca615bde565b6040518061012001604052808b81526020018673ffffffffffffffffffffffffffffffffffffffff1681526020018773ffffffffffffffffffffffffffffffffffffffff1681526020018c81526020018a815260200160006003811115613c2d57fe5b61ffff16815260200160008152602001428152602001600081525090506001600582908060018154018082558091505090600182039060005260206000209060090201600090919290919091506000820151816000015560208201518160010160006101000a81548173ffffffffffffffffffffffffffffffffffffffff021916908373ffffffffffffffffffffffffffffffffffffffff16021790555060408201518160020160006101000a81548173ffffffffffffffffffffffffffffffffffffffff021916908373ffffffffffffffffffffffffffffffffffffffff160217905550606082015181600301556080820151816004019080519060200190613d38929190615ade565b5060a08201518160050160006101000a81548161ffff021916908361ffff16021790555060c0820151816006015560e0820151816007015561010082015181600801555050038160c0018181525050836007018160c001519080600181540180825580915050906001820390600052602060002001600090919290919091505550826006018160c0015190806001815401808255809150509060018203906000526020600020016000909192909190915055507fd0195acff3886ffdef8be00dda20c0150228bc434e265d157bff8d574a78cfdc85878d8d604051808573ffffffffffffffffffffffffffffffffffffffff1673ffffffffffffffffffffffffffffffffffffffff1681526020018473ffffffffffffffffffffffffffffffffffffffff1673ffffffffffffffffffffffffffffffffffffffff16815260200183815260200182815260200194505050505060405180910390a1505050505050505050505050565b33613eaa81614553565b613eb357600080fd5b6000600260003373ffffffffffffffffffffffffffffffffffffffff1673ffffffffffffffffffffffffffffffffffffffff1681526020019081526020016000209050613efe615c5a565b8581600001819052508481602001819052508381604001818152505060006002811115613f2757fe5b816080019061ffff16908161ffff168152505060018260020182908060018154018082558091505090600182039060005260206000209060080201600090919290919091506000820151816000019080519060200190613f88929190615ade565b506020820151816001019080519060200190613fa5929190615ade565b50604082015181600201556060820151816003019080519060200190613fcc929190615ca3565b5060808201518160040160006101000a81548161ffff021916908361ffff16021790555060a0820151816005015560c0820151816006019080519060200190614016929190615d2d565b5060e0820151816007019080519060200190614033929190615d2d565b505050038160a00181815250507f3b357f60132bc5731c5b7cad44cd6c21297cb90e82f468e1c70f0a5d863605d0338260a00151604051808373ffffffffffffffffffffffffffffffffffffffff1673ffffffffffffffffffffffffffffffffffffffff1681526020018281526020019250505060405180910390a1505050505050565b6000836140c381614ac8565b6140cc57600080fd5b836140d681614553565b6140df57600080fd5b60006140eb8686614d00565b905060008090505b8160030180549050811015614187578773ffffffffffffffffffffffffffffffffffffffff1682600301828154811061412857fe5b9060005260206000200160009054906101000a900473ffffffffffffffffffffffffffffffffffffffff1673ffffffffffffffffffffffffffffffffffffffff16141561417a57600094505050614425565b80806001019150506140f3565b50600080600090505b826007018054905081101561441d578260070181815481106141ae57fe5b906000526020600020015491508873ffffffffffffffffffffffffffffffffffffffff16600583815481106141df57fe5b906000526020600020906009020160010160009054906101000a900473ffffffffffffffffffffffffffffffffffffffff1673ffffffffffffffffffffffffffffffffffffffff161480156143ff57506143fe6005838154811061423f57fe5b906000526020600020906009020160405180610120016040529081600082015481526020016001820160009054906101000a900473ffffffffffffffffffffffffffffffffffffffff1673ffffffffffffffffffffffffffffffffffffffff1673ffffffffffffffffffffffffffffffffffffffff1681526020016002820160009054906101000a900473ffffffffffffffffffffffffffffffffffffffff1673ffffffffffffffffffffffffffffffffffffffff1673ffffffffffffffffffffffffffffffffffffffff16815260200160038201548152602001600482018054600181600116156101000203166002900480601f0160208091040260200160405190810160405280929190818152602001828054600181600116156101000203166002900480156143b25780601f10614387576101008083540402835291602001916143b2565b820191906000526020600020905b81548152906001019060200180831161439557829003601f168201915b505050505081526020016005820160009054906101000a900461ffff1661ffff1661ffff1681526020016006820154815260200160078201548152602001600882015481525050614c82565b5b156144105760019550505050614425565b8080600101915050614190565b506000945050505b50509392505050565b6000600580549050826144418282614c75565b61444a57600080fd5b60006005858154811061445957fe5b9060005260206000209060090201905061447881600801546001614e1f565b1561448757600193505061448d565b60009350505b5050919050565b6000600180549050826144a78282614c75565b6144b057600080fd5b600184815481106144bd57fe5b9060005260206000200160009054906101000a900473ffffffffffffffffffffffffffffffffffffffff1692505050919050565b6000836144fd81614553565b61450657600080fd5b60006145128686614d00565b9050614525816006018054905085614c75565b61452e57600080fd5b80600601848154811061453d57fe5b9060005260206000200154925050509392505050565b6000600260008373ffffffffffffffffffffffffffffffffffffffff1673ffffffffffffffffffffffffffffffffffffffff16815260200190815260200160002060030160009054906101000a900460ff169050919050565b60006145b782614ac8565b806145c757506145c682614553565b5b9050919050565b600033905090565b60006145e23384614d00565b9050818160030180549050116145f757600080fd5b8060030160018260030180549050038154811061461057fe5b9060005260206000200160009054906101000a900473ffffffffffffffffffffffffffffffffffffffff1681600301838154811061464a57fe5b9060005260206000200160006101000a81548173ffffffffffffffffffffffffffffffffffffffff021916908373ffffffffffffffffffffffffffffffffffffffff160217905550806003016001826003018054905003815481106146ab57fe5b9060005260206000200160006101000a81549073ffffffffffffffffffffffffffffffffffffffff0219169055806003018054809190600190036146ef9190615d7a565b50505050565b60008261470181614ac8565b61470a57600080fd5b60008060008673ffffffffffffffffffffffffffffffffffffffff1673ffffffffffffffffffffffffffffffffffffffff168152602001908152602001600020905061475d816005018054905085614c75565b61476657600080fd5b80600501848154811061477557fe5b90600052602060002001549250505092915050565b3361479481614ac8565b61479d57600080fd5b6002808111156147a957fe5b826147b48282614e2e565b6147bd57600080fd5b60008060003373ffffffffffffffffffffffffffffffffffffffff1673ffffffffffffffffffffffffffffffffffffffff1681526020019081526020016000209050848160020160006101000a81548161ffff021916908361ffff1602179055507ff4ccf96c8694a982c5e9839011d420af6d3d7c1de10e4d8363c21cbdec257285338260020160009054906101000a900461ffff16604051808373ffffffffffffffffffffffffffffffffffffffff1673ffffffffffffffffffffffffffffffffffffffff1681526020018261ffff1661ffff1681526020019250505060405180910390a15050505050565b6000600380549050905090565b6060806000806000866148c981614553565b6148d257600080fd5b60006148de8989614d00565b90508060000181600101826002015483600301805490508460020154038460040160009054906101000a900461ffff1661ffff16848054600181600116156101000203166002900480601f0160208091040260200160405190810160405280929190818152602001828054600181600116156101000203166002900480156149a75780601f1061497c576101008083540402835291602001916149a7565b820191906000526020600020905b81548152906001019060200180831161498a57829003601f168201915b50505050509450838054600181600116156101000203166002900480601f016020809104026020016040519081016040528092919081815260200182805460018160011615610100020316600290048015614a435780601f10614a1857610100808354040283529160200191614a43565b820191906000526020600020905b815481529060010190602001808311614a2657829003601f168201915b505050505093509650965096509650965050509295509295909350565b600081614a6c81614ac8565b614a7557600080fd5b60008060008573ffffffffffffffffffffffffffffffffffffffff1673ffffffffffffffffffffffffffffffffffffffff1681526020019081526020016000209050806006018054905092505050919050565b60008060008373ffffffffffffffffffffffffffffffffffffffff1673ffffffffffffffffffffffffffffffffffffffff16815260200190815260200160002060040160009054906101000a900460ff169050919050565b600081614b2c81614ac8565b614b3557600080fd5b60008060008573ffffffffffffffffffffffffffffffffffffffff1673ffffffffffffffffffffffffffffffffffffffff16815260200190815260200160002090508060020160009054906101000a900461ffff1661ffff1692505050919050565b600081614ba381614ac8565b614bac57600080fd5b60008060008573ffffffffffffffffffffffffffffffffffffffff1673ffffffffffffffffffffffffffffffffffffffff1681526020019081526020016000209050806005018054905092505050919050565b600081614c0b81614553565b614c1457600080fd5b6000600260008573ffffffffffffffffffffffffffffffffffffffff1673ffffffffffffffffffffffffffffffffffffffff1681526020019081526020016000209050806002018054905092505050919050565b6000600180549050905090565b6000818311905092915050565b6000806004811115614c9057fe5b61ffff168260a0015161ffff161480614cc0575060026004811115614cb157fe5b61ffff168260a0015161ffff16145b8015614cd85750614cd68260e001516001614cf0565b155b15614ce65760019050614ceb565b600090505b919050565b6000428284011115905092915050565b600082614d0c81614553565b614d1557600080fd5b614d64600260008673ffffffffffffffffffffffffffffffffffffffff1673ffffffffffffffffffffffffffffffffffffffff1681526020019081526020016000206002018054905084614c75565b614d6d57600080fd5b600260008573ffffffffffffffffffffffffffffffffffffffff1673ffffffffffffffffffffffffffffffffffffffff1681526020019081526020016000206002018381548110614dba57fe5b906000526020600020906008020191505092915050565b6000806003811115614ddf57fe5b61ffff168260a0015161ffff16148015614e075750614e058260e0015162093a80614cf0565b155b15614e155760019050614e1a565b600090505b919050565b60004282840111905092915050565b6000818311905092915050565b33614e4581614ac8565b614e4e57600080fd5b60008060003373ffffffffffffffffffffffffffffffffffffffff1673ffffffffffffffffffffffffffffffffffffffff168152602001908152602001600020905082816001019080519060200190614ea8929190615b5e565b507fbd0357182a153db357541c210952a08470aef8f10afa243965cfd9f365e35eae33604051808273ffffffffffffffffffffffffffffffffffffffff1673ffffffffffffffffffffffffffffffffffffffff16815260200180602001828103825260098152602001807f4170706c6963616e7400000000000000000000000000000000000000000000008152506020019250505060405180910390a1505050565b33614f5481614553565b614f5d57600080fd5b6000600260003373ffffffffffffffffffffffffffffffffffffffff1673ffffffffffffffffffffffffffffffffffffffff168152602001908152602001600020905082816001019080519060200190614fb8929190615b5e565b507fbd0357182a153db357541c210952a08470aef8f10afa243965cfd9f365e35eae33604051808273ffffffffffffffffffffffffffffffffffffffff1673ffffffffffffffffffffffffffffffffffffffff16815260200180602001828103825260078152602001807f436f6d70616e79000000000000000000000000000000000000000000000000008152506020019250505060405180910390a1505050565b6060808261506781614ac8565b61507057600080fd5b60008060008673ffffffffffffffffffffffffffffffffffffffff1673ffffffffffffffffffffffffffffffffffffffff16815260200190815260200160002090508060000181600101818054600181600116156101000203166002900480601f01602080910402602001604051908101604052809291908181526020018280546001816001161561010002031660029004801561514f5780601f106151245761010080835404028352916020019161514f565b820191906000526020600020905b81548152906001019060200180831161513257829003601f168201915b50505050509150808054600181600116156101000203166002900480601f0160208091040260200160405190810160405280929190818152602001828054600181600116156101000203166002900480156151eb5780601f106151c0576101008083540402835291602001916151eb565b820191906000526020600020905b8154815290600101906020018083116151ce57829003601f168201915b50505050509050935093505050915091565b6060808261520a81614553565b61521357600080fd5b600260008573ffffffffffffffffffffffffffffffffffffffff1673ffffffffffffffffffffffffffffffffffffffff168152602001908152602001600020600001600260008673ffffffffffffffffffffffffffffffffffffffff1673ffffffffffffffffffffffffffffffffffffffff168152602001908152602001600020600101818054600181600116156101000203166002900480601f01602080910402602001604051908101604052809291908181526020018280546001816001161561010002031660029004801561532c5780601f106153015761010080835404028352916020019161532c565b820191906000526020600020905b81548152906001019060200180831161530f57829003601f168201915b50505050509150808054600181600116156101000203166002900480601f0160208091040260200160405190810160405280929190818152602001828054600181600116156101000203166002900480156153c85780601f1061539d576101008083540402835291602001916153c8565b820191906000526020600020905b8154815290600101906020018083116153ab57829003601f168201915b505050505090509250925050915091565b806000803373ffffffffffffffffffffffffffffffffffffffff1673ffffffffffffffffffffffffffffffffffffffff168152602001908152602001600020600001908051906020019061542e929190615b5e565b506001600281111561543c57fe5b6000803373ffffffffffffffffffffffffffffffffffffffff1673ffffffffffffffffffffffffffffffffffffffff16815260200190815260200160002060020160006101000a81548161ffff021916908361ffff16021790555060016000803373ffffffffffffffffffffffffffffffffffffffff1673ffffffffffffffffffffffffffffffffffffffff16815260200190815260200160002060040160006101000a81548160ff0219169083151502179055506001803390806001815401808255809150509060018203906000526020600020016000909192909190916101000a81548173ffffffffffffffffffffffffffffffffffffffff021916908373ffffffffffffffffffffffffffffffffffffffff160217905550036000803373ffffffffffffffffffffffffffffffffffffffff1673ffffffffffffffffffffffffffffffffffffffff168152602001908152602001600020600301819055507f5c9c91395d7033f1f965e3a48d0bf7fa6703b3d41ed2bed7728e6beecc36461e33604051808273ffffffffffffffffffffffffffffffffffffffff1673ffffffffffffffffffffffffffffffffffffffff16815260200180602001828103825260098152602001807f4170706c6963616e7400000000000000000000000000000000000000000000008152506020019250505060405180910390a150565b80600260003373ffffffffffffffffffffffffffffffffffffffff1673ffffffffffffffffffffffffffffffffffffffff1681526020019081526020016000206000019080519060200190615692929190615b5e565b506001600260003373ffffffffffffffffffffffffffffffffffffffff1673ffffffffffffffffffffffffffffffffffffffff16815260200190815260200160002060030160006101000a81548160ff021916908315150217905550600160033390806001815401808255809150509060018203906000526020600020016000909192909190916101000a81548173ffffffffffffffffffffffffffffffffffffffff021916908373ffffffffffffffffffffffffffffffffffffffff16021790555003600260003373ffffffffffffffffffffffffffffffffffffffff1673ffffffffffffffffffffffffffffffffffffffff168152602001908152602001600020600401819055507f5c9c91395d7033f1f965e3a48d0bf7fa6703b3d41ed2bed7728e6beecc36461e33604051808273ffffffffffffffffffffffffffffffffffffffff1673ffffffffffffffffffffffffffffffffffffffff16815260200180602001828103825260078152602001807f436f6d70616e79000000000000000000000000000000000000000000000000008152506020019250505060405180910390a150565b600080600080905060008090505b8460070180549050811015615a5c5784600701818154811061586757fe5b90600052602060002001549250615a436005848154811061588457fe5b906000526020600020906009020160405180610120016040529081600082015481526020016001820160009054906101000a900473ffffffffffffffffffffffffffffffffffffffff1673ffffffffffffffffffffffffffffffffffffffff1673ffffffffffffffffffffffffffffffffffffffff1681526020016002820160009054906101000a900473ffffffffffffffffffffffffffffffffffffffff1673ffffffffffffffffffffffffffffffffffffffff1673ffffffffffffffffffffffffffffffffffffffff16815260200160038201548152602001600482018054600181600116156101000203166002900480601f0160208091040260200160405190810160405280929190818152602001828054600181600116156101000203166002900480156159f75780601f106159cc576101008083540402835291602001916159f7565b820191906000526020600020905b8154815290600101906020018083116159da57829003601f168201915b505050505081526020016005820160009054906101000a900461ffff1661ffff1661ffff1681526020016006820154815260200160078201548152602001600882015481525050614c82565b15615a4f576001820191505b8080600101915050615849565b508092505050919050565b604051806101000160405280600073ffffffffffffffffffffffffffffffffffffffff168152602001600073ffffffffffffffffffffffffffffffffffffffff1681526020016000815260200160608152602001600015158152602001600061ffff16815260200160008152602001600081525090565b828054600181600116156101000203166002900490600052602060002090601f016020900481019282601f10615b1f57805160ff1916838001178555615b4d565b82800160010185558215615b4d579182015b82811115615b4c578251825591602001919060010190615b31565b5b509050615b5a9190615da6565b5090565b828054600181600116156101000203166002900490600052602060002090601f016020900481019282601f10615b9f57805160ff1916838001178555615bcd565b82800160010185558215615bcd579182015b82811115615bcc578251825591602001919060010190615bb1565b5b509050615bda9190615da6565b5090565b60405180610120016040528060008152602001600073ffffffffffffffffffffffffffffffffffffffff168152602001600073ffffffffffffffffffffffffffffffffffffffff1681526020016000815260200160608152602001600061ffff1681526020016000815260200160008152602001600081525090565b60405180610100016040528060608152602001606081526020016000815260200160608152602001600061ffff1681526020016000815260200160608152602001606081525090565b828054828255906000526020600020908101928215615d1c579160200282015b82811115615d1b5782518260006101000a81548173ffffffffffffffffffffffffffffffffffffffff021916908373ffffffffffffffffffffffffffffffffffffffff16021790555091602001919060010190615cc3565b5b509050615d299190615dcb565b5090565b828054828255906000526020600020908101928215615d69579160200282015b82811115615d68578251825591602001919060010190615d4d565b5b509050615d769190615da6565b5090565b815481835581811115615da157818360005260206000209182019101615da09190615da6565b5b505050565b615dc891905b80821115615dc4576000816000905550600101615dac565b5090565b90565b615e0b91905b80821115615e0757600081816101000a81549073ffffffffffffffffffffffffffffffffffffffff021916905550600101615dd1565b5090565b9056fea265627a7a7231582093d18f80b85928c56a107db78fd7f342e55b454ee21ca3caaa333d5ca3016e0964736f6c63430005100032",
  "source": "pragma solidity ^0.5.0;\r\nimport \"./Applicant.sol\";\r\nimport \"./Company.sol\";\r\n\r\ncontract AgencyApp is ApplicantApp, CompanyApp  {\r\n\r\n\r\n    // Account managing\r\n    // Modifier\r\n    modifier Registered(address _addr) {\r\n        require(isRegistered(_addr), \"Address must be registered.\");\r\n        _;\r\n    }\r\n\r\n    function isRegistered(address _addr) public view returns(bool) {\r\n        return (isApplicant(_addr) || isCompany(_addr));\r\n    }\r\n\r\n    //// Action\r\n    function addAcc(string memory _name, bool _type) public {\r\n        require(!isRegistered(msg.sender), \"Address is registered.\");\r\n        if (_type) { // Applicant\r\n            addAPPAcc(_name);\r\n        }\r\n        else { // Company\r\n            addCOMAcc(_name);\r\n        }\r\n    }\r\n\r\n    function updataAccContent(string memory _content, bool _type) public \r\n    Registered(msg.sender) {\r\n        if (_type) { // Applicant\r\n            updateAPPAcc(_content);\r\n        } else { // Company\r\n            updateCOMAcc(_content);\r\n        }\r\n    }\r\n\r\n    //// View\r\n    function getAddrInfo(address _addr) public view \r\n    Registered(_addr) returns(string memory _name, string memory _content, bool _type) {\r\n        string memory name;\r\n        string memory content;\r\n        if (isApplicant(_addr)) { // Applicant\r\n            (name, content) = getAPPAcc(_addr);\r\n            return (name, content, true);\r\n        } else { // Company\r\n            (name, content) = getCOMAcc(_addr);\r\n            return (name, content, false);\r\n        }\r\n    } \r\n\r\n    // Invitation\r\n    //// Struct\r\n    enum InvStatus{\r\n        Open,\r\n        Accept,\r\n        Reject,\r\n        Last\r\n    }\r\n    \r\n    struct Invitation {\r\n        address App;\r\n        address Com;\r\n        uint    JobIdx;\r\n        string  Msg;\r\n        bool    Dir; // true: from applicant, false: from company\r\n        uint16  Status;\r\n\r\n        uint    idx;\r\n        uint256 createTime;\r\n    }\r\n\r\n    uint256 constant inv_Expire   = 7 days;\r\n\r\n    Invitation[] invitations;\r\n\r\n    //// Modifier\r\n    modifier ActiveInv(uint _invIdx, address _addr) {\r\n        Invitation storage _inv = invitations[_invIdx];\r\n        require(isActiveInv(_inv), \"This invitaiton is locked!\");\r\n        if (_inv.Dir) { // From applicant\r\n            // require(_inv.Com == _addr, \"Only company can update this invitation!\");\r\n            require(_inv.Com == _addr);\r\n        } else {       // From company\r\n            // require(_inv.App == _addr, \"Only applicant can update this invitation!\");\r\n            require(_inv.App == _addr);\r\n        }\r\n        _;\r\n    }\r\n\r\n    function existActiveInv(address _applicant, address _company, uint _jobIdx ) public view \r\n    APPAccout(_applicant) COMAccout(_company) returns(bool) {\r\n        Job storage _job = getJob(_company, _jobIdx);\r\n        uint _invIdx;\r\n        for(uint i=0;i < _job.invitations.length;i++){\r\n            _invIdx = _job.invitations[i];\r\n            if (( invitations[_invIdx].App == _applicant ) && ( isActiveInv(invitations[_invIdx]) )) {\r\n                return true;\r\n            }\r\n        }\r\n        return false;\r\n    }\r\n\r\n    function isActiveInv(Invitation memory _inv) internal view returns(bool) {\r\n        if ((_inv.Status == uint16(InvStatus.Open)) && \r\n            (!isExpired(_inv.createTime, inv_Expire))) { return true; }\r\n        else { return false; }\r\n    }\r\n\r\n    //// Action\r\n    function sendInvitation(address _tarAddr, uint _jobIdx, string memory _msg, bool _dir) public {\r\n        address _ComAddr;\r\n        address _AppAddr;\r\n        if (_dir) { // From Applicant\r\n            _ComAddr = _tarAddr;\r\n            _AppAddr = msg.sender;\r\n        } else { // From company\r\n            _ComAddr = msg.sender;\r\n            _AppAddr = _tarAddr;\r\n        }\r\n        // require(!existActiveInv(_AppAddr, _ComAddr, _jobIdx), \"Exist active invitation!\");\r\n        require(!existActiveInv(_AppAddr, _ComAddr, _jobIdx));\r\n\r\n        Job storage _job = getJob(_ComAddr, _jobIdx);\r\n        Applicant storage _applicant = applicants[_AppAddr];\r\n\r\n        // require((_applicant.Status == uint16(AppStatus.Open)), \"Applicant is in close Status!\");\r\n        // require((_job.Status == uint16(JobStatus.Open)), \"Job is in close Status!\");\r\n        // require((_job.Employee.length < _job.Number) || (_job.Status == uint16(JobStatus.Close)), \"Job is closed!\");\r\n\r\n        require((_applicant.Status == uint16(AppStatus.Open)));\r\n        require((_job.Status == uint16(JobStatus.Open)));\r\n        require((_job.Employee.length < _job.Number) || (_job.Status == uint16(JobStatus.Close)));\r\n\r\n        Invitation memory new_inv = Invitation({\r\n            App:    _AppAddr,\r\n            Com:    _ComAddr,\r\n            JobIdx: _jobIdx,\r\n            Msg:    _msg,\r\n            Dir:    _dir,\r\n            Status: uint16(InvStatus.Open),\r\n            idx:    0,\r\n            createTime: now\r\n        });\r\n        new_inv.idx = invitations.push(new_inv)-1;\r\n\r\n        _job.invitations.push(new_inv.idx);\r\n        _applicant.invitations.push(new_inv.idx);\r\n\r\n        emit OnInvitationAdd(_AppAddr, _ComAddr, _jobIdx, _dir);\r\n    }\r\n\r\n    function updateInvitationStatus(uint _invIdx, uint _newStatus) public \r\n    ValidIdx(invitations.length,_invIdx) ActiveInv(_invIdx, msg.sender) ValidStatus(uint(InvStatus.Last), _newStatus){\r\n        Invitation storage _inv = invitations[_invIdx];\r\n        _inv.Status = uint16(_newStatus);\r\n        \r\n        emit OnInvitationUpdate(_inv.App, _inv.Com, _inv.JobIdx, _inv.Dir, _inv.Status);\r\n    }\r\n\r\n    //// View\r\n    function getInvitationInfo(uint _invIdx) public view ValidIdx(invitations.length,_invIdx)\r\n    returns (address _applicants, address _company, uint _jobIdx, \r\n    string memory _msg, bool _dir, uint _status, uint256 _createtime, uint _dur) {\r\n        Invitation memory _inv = invitations[_invIdx];\r\n        return (_inv.App, _inv.Com, _inv.JobIdx,_inv.Msg, _inv.Dir, \r\n                uint(_inv.Status), _inv.createTime, inv_Expire);\r\n    }\r\n\r\n    function isExpiredInv(uint _invIdx) public view \r\n    ValidIdx(invitations.length,_invIdx) returns(bool) {\r\n        if (isExpired(invitations[_invIdx].createTime, inv_Expire)) { return true; } \r\n        return false;\r\n    }\r\n\r\n    // Offer\r\n    //// Struct\r\n    enum OffStatus{\r\n        Open,\r\n        Accept,\r\n        Reject,\r\n        Close, \r\n        Last\r\n    }\r\n    struct Offer {\r\n        uint    Payment;\r\n        address App;\r\n        address Com;\r\n        uint    JobIdx;\r\n        string  Msg;\r\n        uint16  Status;\r\n\r\n        uint    idx;\r\n        uint256 createTime;\r\n        uint256 updateTime;\r\n    }\r\n    uint256 constant off_Expire   = 1 seconds;\r\n    uint256 constant off_Cooldown = 1 seconds;\r\n\r\n    Offer[] offers;\r\n\r\n    //// Modifier\r\n    modifier APPModifiableOff(uint _offIdx, address _addr) {\r\n        // Offer storage _offer = offers[_offIdx];\r\n        // require((_offer.App == _addr), \"Only applicant can check offer.\");\r\n        // require((_offer.Status == uint16(OffStatus.Open)), \"Offer is locked!\");\r\n        // require(isExpired(_offer.createTime, off_Expire), \"Offer is expired!\");\r\n        require((offers[_offIdx].App == _addr));\r\n        require((offers[_offIdx].Status == uint16(OffStatus.Open)));\r\n        require(!isExpired(offers[_offIdx].createTime, off_Expire));\r\n\r\n        _;\r\n    }\r\n\r\n    modifier COMModifiableOff(uint _offIdx, address _addr) {\r\n        // Offer storage _offer = offers[_offIdx];\r\n        // require((_offer.Com == _addr), \"Only Company can update offer.\");\r\n        // require((_offer.Status == uint16(OffStatus.Open) || _offer.Status == uint16(OffStatus.Reject)), \"Offer is locked!\");\r\n        // require(isExpired(_offer.createTime, off_Expire), \"Offer is expired!\");\r\n        // require(!inCoolDown(_offer.updateTime, off_Cooldown), \"Offer is in cool down!\");\r\n        require((offers[_offIdx].Com == _addr));\r\n        require((offers[_offIdx].Status == uint16(OffStatus.Open) || offers[_offIdx].Status == uint16(OffStatus.Reject)));\r\n        require(!isExpired(offers[_offIdx].createTime, off_Expire));\r\n        require(!inCoolDown(offers[_offIdx].updateTime, off_Cooldown));\r\n        _;\r\n    }\r\n\r\n    function canSendOffer(address _applicant, address _company, uint _jobIdx ) public view\r\n    APPAccout(_applicant) COMAccout(_company) returns(bool){\r\n        Job storage _job = getJob(_company, _jobIdx);\r\n        for(uint j=0;j < _job.Employee.length; j++) {\r\n            if (_job.Employee[j] == _applicant) {\r\n                return false;\r\n            }\r\n        }\r\n\r\n        uint offerIdx;\r\n        for(uint i=0;i < _job.offers.length;i++){\r\n            offerIdx = _job.offers[i];\r\n            if (offers[offerIdx].App == _applicant && \r\n                isActiveOffer(offers[offerIdx])) {\r\n                    return true;\r\n            }\r\n        }\r\n        return false;\r\n    }\r\n\r\n    function isActiveOffer(Offer memory _offer) internal view returns(bool) {\r\n        if (((_offer.Status == uint16(OffStatus.Open))\r\n            || (_offer.Status == uint16(OffStatus.Reject))) && \r\n            !isExpired(_offer.createTime, off_Expire) ) {\r\n            return true;\r\n        }\r\n        return false;\r\n    }\r\n\r\n    function getJobActiveOfferNum(Job storage _job) internal view returns(uint) {\r\n        uint _offIdx;\r\n        uint activeOffNum = 0;\r\n        for(uint i=0;i < _job.offers.length;i++){\r\n            _offIdx = _job.offers[i];\r\n            if (isActiveOffer(offers[_offIdx])) {\r\n                activeOffNum += 1;\r\n            }\r\n        }\r\n        return activeOffNum;\r\n    }\r\n\r\n    //// Action\r\n    function sendOffer(address _tarAddr, uint _jobIdx, uint _payment, string memory _msg) public \r\n    APPAccout(_tarAddr) COMAccout(msg.sender) {\r\n        address _comAddr = msg.sender;\r\n        address _appAddr = _tarAddr;\r\n\r\n        Job storage _job = getJob(_comAddr, _jobIdx);\r\n        Applicant storage _applicant = applicants[_appAddr];\r\n\r\n        // require(!canSendOffer(_appAddr, _comAddr, _jobIdx), \"Exist active offer!\");\r\n        // require((_applicant.Status == uint16(AppStatus.Open)), \"Applicant is in close Status!\");\r\n        // require((_job.Status == uint16(JobStatus.Open)), \"Job is in close Status!\");\r\n        // require((_job.Employee.length >= _job.Number), \"No vacancy for this job!\");\r\n\r\n        require(!canSendOffer(_appAddr, _comAddr, _jobIdx));\r\n        require((_applicant.Status == uint16(AppStatus.Open)));\r\n        require((_job.Status == uint16(JobStatus.Open)));\r\n        require((_job.Employee.length <= _job.Number));\r\n\r\n        uint sendedOfferNum = getJobActiveOfferNum(_job);\r\n        require((sendedOfferNum <= (_job.Number - _job.Employee.length)));\r\n\r\n        Offer memory new_offer = Offer({\r\n            Payment: _payment,\r\n            App:     _appAddr,\r\n            Com:     _comAddr,\r\n            JobIdx:  _jobIdx,\r\n            Msg:     _msg,\r\n            Status:  uint16(InvStatus.Open),\r\n            idx:     0,\r\n            createTime: now,\r\n            updateTime: 0\r\n        });\r\n        new_offer.idx = offers.push(new_offer)-1;\r\n\r\n        _job.offers.push(new_offer.idx);\r\n        _applicant.offers.push(new_offer.idx);\r\n\r\n        emit OnOfferAdd(_appAddr, _comAddr, _jobIdx, _payment);\r\n    }\r\n\r\n    function updateOfferStatus(uint _offIdx, uint _newStatus) public \r\n    ValidIdx(offers.length, _offIdx) ValidStatus(uint(OffStatus.Last), _newStatus) APPModifiableOff(_offIdx, msg.sender) \r\n    {\r\n        Offer storage _offer = offers[_offIdx];\r\n        _offer.Status = uint16(_newStatus);\r\n\r\n        if (uint16(_newStatus) == uint16(OffStatus.Accept)) {\r\n            // TODO\r\n            // Job\r\n            Job storage _job = getJob(_offer.Com, _offer.JobIdx);\r\n            _job.Employee.push(_offer.App);\r\n            // Applicant\r\n            Applicant storage _applicant = applicants[_offer.App];\r\n            _applicant.Status = uint16(AppStatus.Close);\r\n            for(uint i=0;i<_applicant.offers.length;i++) {\r\n                if (isActiveOffer(offers[_applicant.offers[i]])) {\r\n                    offers[_applicant.offers[i]].Status = uint16(OffStatus.Close);\r\n                }\r\n            }\r\n        }\r\n        \r\n        emit OnOfferUpdate(_offer.App, _offer.Com, _offer.JobIdx, _offer.Payment, _offer.Status);\r\n    }\r\n\r\n    function updateOfferPayment(uint _offIdx, uint _newPayment) public \r\n    ValidIdx(offers.length, _offIdx) COMModifiableOff(_offIdx, msg.sender) {\r\n        Offer storage _offer = offers[_offIdx];\r\n        _offer.Payment = _newPayment;\r\n        _offer.Status = uint16(OffStatus.Open);\r\n\r\n        emit OnOfferUpdate(_offer.App, _offer.Com, _offer.JobIdx, _offer.Payment, _offer.Status);\r\n    }\r\n\r\n    function closeOffer(uint _offIdx) public \r\n    ValidIdx(offers.length, _offIdx){\r\n        Offer storage _offer = offers[_offIdx];\r\n        // require(_offer.Com == msg.sender, \"Only Company can close offer!\");\r\n        // require(isActiveOffer(_offer), \"Offer is not active!\");\r\n        require(_offer.Com == msg.sender);\r\n        require(isActiveOffer(_offer));\r\n        _offer.Status = uint16(OffStatus.Close);\r\n\r\n        emit OnOfferUpdate(_offer.App, _offer.Com, _offer.JobIdx, _offer.Payment, _offer.Status);\r\n    }\r\n\r\n    //// View\r\n    function getOfferInfo(uint _offIdx) external view ValidIdx(offers.length, _offIdx)\r\n    returns (address _applicants, address _company, uint _jobIdx, string memory _msg, uint _payment, \r\n    uint _status, uint256 _createTime, uint256 _updateTime) {\r\n        Offer storage _offer = offers[_offIdx];\r\n        return (_offer.App, _offer.Com, _offer.JobIdx, _offer.Msg, _offer.Payment, \r\n                uint(_offer.Status), _offer.createTime, _offer.updateTime);\r\n    }\r\n\r\n    function isExpiredOff(uint _offIdx) public view \r\n    ValidIdx(offers.length, _offIdx) returns(bool) {\r\n        if (isExpired(offers[_offIdx].createTime, off_Expire)) { return true; } \r\n        return false;\r\n    }\r\n\r\n    function inCooldownOff(uint _offIdx) public view \r\n    ValidIdx(offers.length, _offIdx) returns(bool) {\r\n        Offer storage _offer = offers[_offIdx];\r\n        if (inCoolDown(_offer.updateTime, off_Cooldown)) { return true; } \r\n        return false;\r\n    }\r\n}",
  "sourcePath": "C:/Users/chung/Documents//()/nmLab-final/contracts/AgencyApp.sol",
  "compiler": {
    "name": "solc",
    "version": "0.5.16+commit.9c3226ce.Emscripten.clang"
  },
  "schemaVersion": "3.3.3",
  "updatedAt": "2021-01-12T08:00:01.827Z",
  "networkType": "ethereum",
  "devdoc": {
    "methods": {}
  },
  "userdoc": {
    "methods": {
      "addAcc(string,bool)": {
        "notice": "/ Action"
      },
      "getAddrInfo(address)": {
        "notice": "/ View"
      },
      "getApplincantInvNum(address)": {
        "notice": "/ Invitation"
      },
      "getApplincantOffNum(address)": {
        "notice": "/ Offer"
      },
      "getInvitationInfo(uint256)": {
        "notice": "/ View"
      },
      "getJobInvNum(address,uint256)": {
        "notice": "/ Invitation"
      },
      "getJobOffNum(address,uint256)": {
        "notice": "/ Offer"
      },
      "getOfferInfo(uint256)": {
        "notice": "/ View"
      },
      "sendInvitation(address,uint256,string,bool)": {
        "notice": "/ Action"
      },
      "sendOffer(address,uint256,uint256,string)": {
        "notice": "/ Action"
      }
    }
  }
}