{
  "contractName": "AgencyApp",
  "abi": [
    {
      "anonymous": false,
      "inputs": [
        {
          "indexed": false,
          "internalType": "address",
          "name": "userAddr",
          "type": "address"
        },
        {
          "indexed": false,
          "internalType": "string",
          "name": "userType",
          "type": "string"
        }
      ],
      "name": "OnAccountAdd",
      "type": "event"
    },
    {
      "anonymous": false,
      "inputs": [
        {
          "indexed": false,
          "internalType": "address",
          "name": "userAddr",
          "type": "address"
        },
        {
          "indexed": false,
          "internalType": "string",
          "name": "userType",
          "type": "string"
        }
      ],
      "name": "OnAccountUpdate",
      "type": "event"
    },
    {
      "anonymous": false,
      "inputs": [
        {
          "indexed": false,
          "internalType": "address",
          "name": "userAddr",
          "type": "address"
        },
        {
          "indexed": false,
          "internalType": "uint16",
          "name": "newStatus",
          "type": "uint16"
        }
      ],
      "name": "OnApplicantStatusChange",
      "type": "event"
    },
    {
      "anonymous": false,
      "inputs": [
        {
          "indexed": false,
          "internalType": "address",
          "name": "applicant",
          "type": "address"
        },
        {
          "indexed": false,
          "internalType": "address",
          "name": "company",
          "type": "address"
        },
        {
          "indexed": false,
          "internalType": "uint256",
          "name": "jobIdx",
          "type": "uint256"
        },
        {
          "indexed": false,
          "internalType": "bool",
          "name": "direction",
          "type": "bool"
        }
      ],
      "name": "OnInvitationAdd",
      "type": "event"
    },
    {
      "anonymous": false,
      "inputs": [
        {
          "indexed": false,
          "internalType": "address",
          "name": "applicant",
          "type": "address"
        },
        {
          "indexed": false,
          "internalType": "address",
          "name": "company",
          "type": "address"
        },
        {
          "indexed": false,
          "internalType": "uint256",
          "name": "jobIdx",
          "type": "uint256"
        },
        {
          "indexed": false,
          "internalType": "bool",
          "name": "direction",
          "type": "bool"
        },
        {
          "indexed": false,
          "internalType": "uint16",
          "name": "status",
          "type": "uint16"
        }
      ],
      "name": "OnInvitationUpdate",
      "type": "event"
    },
    {
      "anonymous": false,
      "inputs": [
        {
          "indexed": false,
          "internalType": "address",
          "name": "userAddr",
          "type": "address"
        },
        {
          "indexed": false,
          "internalType": "uint256",
          "name": "jobIdx",
          "type": "uint256"
        }
      ],
      "name": "OnJobAdd",
      "type": "event"
    },
    {
      "anonymous": false,
      "inputs": [
        {
          "indexed": false,
          "internalType": "address",
          "name": "userAddr",
          "type": "address"
        },
        {
          "indexed": false,
          "internalType": "uint256",
          "name": "jobIdx",
          "type": "uint256"
        },
        {
          "indexed": false,
          "internalType": "uint16",
          "name": "newStatus",
          "type": "uint16"
        }
      ],
      "name": "OnJobStatusChange",
      "type": "event"
    },
    {
      "anonymous": false,
      "inputs": [
        {
          "indexed": false,
          "internalType": "address",
          "name": "userAddr",
          "type": "address"
        },
        {
          "indexed": false,
          "internalType": "uint256",
          "name": "jobIdx",
          "type": "uint256"
        }
      ],
      "name": "OnJobUpdate",
      "type": "event"
    },
    {
      "anonymous": false,
      "inputs": [
        {
          "indexed": false,
          "internalType": "address",
          "name": "applicant",
          "type": "address"
        },
        {
          "indexed": false,
          "internalType": "address",
          "name": "company",
          "type": "address"
        },
        {
          "indexed": false,
          "internalType": "uint256",
          "name": "jobIdx",
          "type": "uint256"
        },
        {
          "indexed": false,
          "internalType": "uint256",
          "name": "payment",
          "type": "uint256"
        }
      ],
      "name": "OnOfferAdd",
      "type": "event"
    },
    {
      "anonymous": false,
      "inputs": [
        {
          "indexed": false,
          "internalType": "address",
          "name": "applicant",
          "type": "address"
        },
        {
          "indexed": false,
          "internalType": "address",
          "name": "company",
          "type": "address"
        },
        {
          "indexed": false,
          "internalType": "uint256",
          "name": "jobIdx",
          "type": "uint256"
        },
        {
          "indexed": false,
          "internalType": "uint256",
          "name": "payment",
          "type": "uint256"
        },
        {
          "indexed": false,
          "internalType": "uint16",
          "name": "status",
          "type": "uint16"
        }
      ],
      "name": "OnOfferUpdate",
      "type": "event"
    },
    {
      "constant": false,
      "inputs": [
        {
          "internalType": "string",
          "name": "_title",
          "type": "string"
        },
        {
          "internalType": "string",
          "name": "_description",
          "type": "string"
        },
        {
          "internalType": "uint256",
          "name": "_num",
          "type": "uint256"
        }
      ],
      "name": "AddCompanyJob",
      "outputs": [],
      "payable": false,
      "stateMutability": "nonpayable",
      "type": "function"
    },
    {
      "constant": false,
      "inputs": [
        {
          "internalType": "uint256",
          "name": "_jobIdx",
          "type": "uint256"
        },
        {
          "internalType": "string",
          "name": "_title",
          "type": "string"
        },
        {
          "internalType": "string",
          "name": "_description",
          "type": "string"
        },
        {
          "internalType": "uint256",
          "name": "_num",
          "type": "uint256"
        }
      ],
      "name": "UpdateJob",
      "outputs": [],
      "payable": false,
      "stateMutability": "nonpayable",
      "type": "function"
    },
    {
      "constant": true,
      "inputs": [],
      "name": "checkMsgsender",
      "outputs": [
        {
          "internalType": "address",
          "name": "",
          "type": "address"
        }
      ],
      "payable": false,
      "stateMutability": "view",
      "type": "function"
    },
    {
      "constant": true,
      "inputs": [
        {
          "internalType": "uint256",
          "name": "_idx",
          "type": "uint256"
        }
      ],
      "name": "getApplicantAddr",
      "outputs": [
        {
          "internalType": "address",
          "name": "_userAddr",
          "type": "address"
        }
      ],
      "payable": false,
      "stateMutability": "view",
      "type": "function"
    },
    {
      "constant": true,
      "inputs": [
        {
          "internalType": "address",
          "name": "_userAddr",
          "type": "address"
        }
      ],
      "name": "getApplicantStatus",
      "outputs": [
        {
          "internalType": "uint256",
          "name": "_status",
          "type": "uint256"
        }
      ],
      "payable": false,
      "stateMutability": "view",
      "type": "function"
    },
    {
      "constant": true,
      "inputs": [],
      "name": "getApplicantsNum",
      "outputs": [
        {
          "internalType": "uint256",
          "name": "_len",
          "type": "uint256"
        }
      ],
      "payable": false,
      "stateMutability": "view",
      "type": "function"
    },
    {
      "constant": true,
      "inputs": [
        {
          "internalType": "address",
          "name": "_userAddr",
          "type": "address"
        },
        {
          "internalType": "uint256",
          "name": "_invPos",
          "type": "uint256"
        }
      ],
      "name": "getApplincantInvIdx",
      "outputs": [
        {
          "internalType": "uint256",
          "name": "_invIdx",
          "type": "uint256"
        }
      ],
      "payable": false,
      "stateMutability": "view",
      "type": "function"
    },
    {
      "constant": true,
      "inputs": [
        {
          "internalType": "address",
          "name": "_userAddr",
          "type": "address"
        }
      ],
      "name": "getApplincantInvNum",
      "outputs": [
        {
          "internalType": "uint256",
          "name": "_num",
          "type": "uint256"
        }
      ],
      "payable": false,
      "stateMutability": "view",
      "type": "function"
    },
    {
      "constant": true,
      "inputs": [
        {
          "internalType": "address",
          "name": "_userAddr",
          "type": "address"
        },
        {
          "internalType": "uint256",
          "name": "_offPos",
          "type": "uint256"
        }
      ],
      "name": "getApplincantOffIdx",
      "outputs": [
        {
          "internalType": "uint256",
          "name": "_invIdx",
          "type": "uint256"
        }
      ],
      "payable": false,
      "stateMutability": "view",
      "type": "function"
    },
    {
      "constant": true,
      "inputs": [
        {
          "internalType": "address",
          "name": "_userAddr",
          "type": "address"
        }
      ],
      "name": "getApplincantOffNum",
      "outputs": [
        {
          "internalType": "uint256",
          "name": "_num",
          "type": "uint256"
        }
      ],
      "payable": false,
      "stateMutability": "view",
      "type": "function"
    },
    {
      "constant": true,
      "inputs": [
        {
          "internalType": "uint256",
          "name": "_idx",
          "type": "uint256"
        }
      ],
      "name": "getCompanyAddr",
      "outputs": [
        {
          "internalType": "address",
          "name": "_userAcc",
          "type": "address"
        }
      ],
      "payable": false,
      "stateMutability": "view",
      "type": "function"
    },
    {
      "constant": true,
      "inputs": [
        {
          "internalType": "address",
          "name": "_userAddr",
          "type": "address"
        }
      ],
      "name": "getCompanyJobNum",
      "outputs": [
        {
          "internalType": "uint256",
          "name": "_len",
          "type": "uint256"
        }
      ],
      "payable": false,
      "stateMutability": "view",
      "type": "function"
    },
    {
      "constant": true,
      "inputs": [],
      "name": "getCompanyNum",
      "outputs": [
        {
          "internalType": "uint256",
          "name": "_len",
          "type": "uint256"
        }
      ],
      "payable": false,
      "stateMutability": "view",
      "type": "function"
    },
    {
      "constant": true,
      "inputs": [
        {
          "internalType": "address",
          "name": "_userAddr",
          "type": "address"
        },
        {
          "internalType": "uint256",
          "name": "_jobIdx",
          "type": "uint256"
        }
      ],
      "name": "getJobContent",
      "outputs": [
        {
          "internalType": "string",
          "name": "_title",
          "type": "string"
        },
        {
          "internalType": "string",
          "name": "_description",
          "type": "string"
        },
        {
          "internalType": "uint256",
          "name": "_num",
          "type": "uint256"
        },
        {
          "internalType": "uint256",
          "name": "_remain",
          "type": "uint256"
        },
        {
          "internalType": "uint256",
          "name": "_status",
          "type": "uint256"
        }
      ],
      "payable": false,
      "stateMutability": "view",
      "type": "function"
    },
    {
      "constant": true,
      "inputs": [
        {
          "internalType": "address",
          "name": "_userAddr",
          "type": "address"
        },
        {
          "internalType": "uint256",
          "name": "_jobIdx",
          "type": "uint256"
        },
        {
          "internalType": "uint256",
          "name": "_invPos",
          "type": "uint256"
        }
      ],
      "name": "getJobInvIdx",
      "outputs": [
        {
          "internalType": "uint256",
          "name": "_invIdx",
          "type": "uint256"
        }
      ],
      "payable": false,
      "stateMutability": "view",
      "type": "function"
    },
    {
      "constant": true,
      "inputs": [
        {
          "internalType": "address",
          "name": "_userAddr",
          "type": "address"
        },
        {
          "internalType": "uint256",
          "name": "_jobIdx",
          "type": "uint256"
        }
      ],
      "name": "getJobInvNum",
      "outputs": [
        {
          "internalType": "uint256",
          "name": "_num",
          "type": "uint256"
        }
      ],
      "payable": false,
      "stateMutability": "view",
      "type": "function"
    },
    {
      "constant": true,
      "inputs": [
        {
          "internalType": "address",
          "name": "_userAddr",
          "type": "address"
        },
        {
          "internalType": "uint256",
          "name": "_jobIdx",
          "type": "uint256"
        },
        {
          "internalType": "uint256",
          "name": "_offPos",
          "type": "uint256"
        }
      ],
      "name": "getJobOffIdx",
      "outputs": [
        {
          "internalType": "uint256",
          "name": "_invIdx",
          "type": "uint256"
        }
      ],
      "payable": false,
      "stateMutability": "view",
      "type": "function"
    },
    {
      "constant": true,
      "inputs": [
        {
          "internalType": "address",
          "name": "_userAddr",
          "type": "address"
        },
        {
          "internalType": "uint256",
          "name": "_jobIdx",
          "type": "uint256"
        }
      ],
      "name": "getJobOffNum",
      "outputs": [
        {
          "internalType": "uint256",
          "name": "_num",
          "type": "uint256"
        }
      ],
      "payable": false,
      "stateMutability": "view",
      "type": "function"
    },
    {
      "constant": true,
      "inputs": [
        {
          "internalType": "address",
          "name": "addr",
          "type": "address"
        }
      ],
      "name": "isApplicant",
      "outputs": [
        {
          "internalType": "bool",
          "name": "",
          "type": "bool"
        }
      ],
      "payable": false,
      "stateMutability": "view",
      "type": "function"
    },
    {
      "constant": true,
      "inputs": [
        {
          "internalType": "address",
          "name": "addr",
          "type": "address"
        }
      ],
      "name": "isCompany",
      "outputs": [
        {
          "internalType": "bool",
          "name": "",
          "type": "bool"
        }
      ],
      "payable": false,
      "stateMutability": "view",
      "type": "function"
    },
    {
      "constant": false,
      "inputs": [
        {
          "internalType": "uint256",
          "name": "_newStatus",
          "type": "uint256"
        }
      ],
      "name": "updateApplicantStatus",
      "outputs": [],
      "payable": false,
      "stateMutability": "nonpayable",
      "type": "function"
    },
    {
      "constant": false,
      "inputs": [
        {
          "internalType": "uint256",
          "name": "_jobIdx",
          "type": "uint256"
        },
        {
          "internalType": "uint256",
          "name": "_newStatus",
          "type": "uint256"
        }
      ],
      "name": "updateJobStatus",
      "outputs": [],
      "payable": false,
      "stateMutability": "nonpayable",
      "type": "function"
    },
    {
      "constant": true,
      "inputs": [
        {
          "internalType": "address",
          "name": "addr",
          "type": "address"
        }
      ],
      "name": "isAccount",
      "outputs": [
        {
          "internalType": "bool",
          "name": "",
          "type": "bool"
        }
      ],
      "payable": false,
      "stateMutability": "view",
      "type": "function"
    },
    {
      "constant": true,
      "inputs": [
        {
          "internalType": "address",
          "name": "_applicant",
          "type": "address"
        },
        {
          "internalType": "address",
          "name": "_company",
          "type": "address"
        },
        {
          "internalType": "uint256",
          "name": "_jobIdx",
          "type": "uint256"
        }
      ],
      "name": "existActiveInv",
      "outputs": [
        {
          "internalType": "bool",
          "name": "",
          "type": "bool"
        }
      ],
      "payable": false,
      "stateMutability": "view",
      "type": "function"
    },
    {
      "constant": true,
      "inputs": [
        {
          "internalType": "address",
          "name": "_applicant",
          "type": "address"
        },
        {
          "internalType": "address",
          "name": "_company",
          "type": "address"
        },
        {
          "internalType": "uint256",
          "name": "_jobIdx",
          "type": "uint256"
        }
      ],
      "name": "existActiveOffer",
      "outputs": [
        {
          "internalType": "bool",
          "name": "",
          "type": "bool"
        }
      ],
      "payable": false,
      "stateMutability": "view",
      "type": "function"
    },
    {
      "constant": false,
      "inputs": [
        {
          "internalType": "string",
          "name": "_name",
          "type": "string"
        },
        {
          "internalType": "bool",
          "name": "_type",
          "type": "bool"
        }
      ],
      "name": "addAcc",
      "outputs": [],
      "payable": false,
      "stateMutability": "nonpayable",
      "type": "function"
    },
    {
      "constant": false,
      "inputs": [
        {
          "internalType": "string",
          "name": "_content",
          "type": "string"
        },
        {
          "internalType": "bool",
          "name": "_type",
          "type": "bool"
        }
      ],
      "name": "updataAccContent",
      "outputs": [],
      "payable": false,
      "stateMutability": "nonpayable",
      "type": "function"
    },
    {
      "constant": true,
      "inputs": [
        {
          "internalType": "address",
          "name": "_userAddr",
          "type": "address"
        }
      ],
      "name": "getAddrInfo",
      "outputs": [
        {
          "internalType": "string",
          "name": "_name",
          "type": "string"
        },
        {
          "internalType": "string",
          "name": "_content",
          "type": "string"
        },
        {
          "internalType": "bool",
          "name": "_type",
          "type": "bool"
        }
      ],
      "payable": false,
      "stateMutability": "view",
      "type": "function"
    },
    {
      "constant": false,
      "inputs": [
        {
          "internalType": "address",
          "name": "_tarAddr",
          "type": "address"
        },
        {
          "internalType": "uint256",
          "name": "_jobIdx",
          "type": "uint256"
        },
        {
          "internalType": "string",
          "name": "_msg",
          "type": "string"
        },
        {
          "internalType": "bool",
          "name": "_dir",
          "type": "bool"
        }
      ],
      "name": "sendInvitation",
      "outputs": [],
      "payable": false,
      "stateMutability": "nonpayable",
      "type": "function"
    },
    {
      "constant": false,
      "inputs": [
        {
          "internalType": "uint256",
          "name": "_invIdx",
          "type": "uint256"
        },
        {
          "internalType": "uint256",
          "name": "_newStatus",
          "type": "uint256"
        }
      ],
      "name": "updateInvitationStatus",
      "outputs": [],
      "payable": false,
      "stateMutability": "nonpayable",
      "type": "function"
    },
    {
      "constant": true,
      "inputs": [
        {
          "internalType": "uint256",
          "name": "_invIdx",
          "type": "uint256"
        }
      ],
      "name": "getInvitationInfo",
      "outputs": [
        {
          "internalType": "address",
          "name": "_applicants",
          "type": "address"
        },
        {
          "internalType": "address",
          "name": "_company",
          "type": "address"
        },
        {
          "internalType": "uint256",
          "name": "_jobIdx",
          "type": "uint256"
        },
        {
          "internalType": "string",
          "name": "_msg",
          "type": "string"
        },
        {
          "internalType": "bool",
          "name": "_dir",
          "type": "bool"
        },
        {
          "internalType": "uint256",
          "name": "_status",
          "type": "uint256"
        },
        {
          "internalType": "uint256",
          "name": "_timestamp",
          "type": "uint256"
        }
      ],
      "payable": false,
      "stateMutability": "view",
      "type": "function"
    },
    {
      "constant": false,
      "inputs": [
        {
          "internalType": "address",
          "name": "_tarAddr",
          "type": "address"
        },
        {
          "internalType": "uint256",
          "name": "_jobIdx",
          "type": "uint256"
        },
        {
          "internalType": "uint256",
          "name": "_payment",
          "type": "uint256"
        },
        {
          "internalType": "string",
          "name": "_msg",
          "type": "string"
        }
      ],
      "name": "sendOffer",
      "outputs": [],
      "payable": false,
      "stateMutability": "nonpayable",
      "type": "function"
    },
    {
      "constant": false,
      "inputs": [
        {
          "internalType": "uint256",
          "name": "_offerIdx",
          "type": "uint256"
        },
        {
          "internalType": "uint256",
          "name": "_newStatus",
          "type": "uint256"
        }
      ],
      "name": "updateOfferStatus",
      "outputs": [],
      "payable": false,
      "stateMutability": "nonpayable",
      "type": "function"
    },
    {
      "constant": false,
      "inputs": [
        {
          "internalType": "uint256",
          "name": "_offerIdx",
          "type": "uint256"
        },
        {
          "internalType": "uint256",
          "name": "_newPayment",
          "type": "uint256"
        }
      ],
      "name": "updateOfferPayment",
      "outputs": [],
      "payable": false,
      "stateMutability": "nonpayable",
      "type": "function"
    },
    {
      "constant": true,
      "inputs": [
        {
          "internalType": "uint256",
          "name": "_offerIdx",
          "type": "uint256"
        }
      ],
      "name": "getOfferInfo",
      "outputs": [
        {
          "internalType": "address",
          "name": "_applicants",
          "type": "address"
        },
        {
          "internalType": "address",
          "name": "_company",
          "type": "address"
        },
        {
          "internalType": "uint256",
          "name": "_jobIdx",
          "type": "uint256"
        },
        {
          "internalType": "string",
          "name": "_msg",
          "type": "string"
        },
        {
          "internalType": "uint256",
          "name": "_payment",
          "type": "uint256"
        },
        {
          "internalType": "uint256",
          "name": "_status",
          "type": "uint256"
        },
        {
          "internalType": "uint256",
          "name": "_createTime",
          "type": "uint256"
        },
        {
          "internalType": "uint256",
          "name": "_updateTime",
          "type": "uint256"
        }
      ],
      "payable": false,
      "stateMutability": "view",
      "type": "function"
    }
  ],
  "bytecode": "0x608060405234801561001057600080fd5b5061537b806100206000396000f3fe608060405234801561001057600080fd5b50600436106102115760003560e01c80637b3adae111610125578063e3082110116100ad578063f4310d491161007c578063f4310d49146113ed578063f8c686d914611449578063f9357c5f146114a1578063fc9d9727146114f9578063fda066231461155157610211565b8063e308211014611201578063eb0308271461122f578063ec49660f1461124d578063f3d041eb1461139557610211565b8063975b0f58116100f4578063975b0f5814610f27578063a0406ce214610f93578063c47c0ac014610fef578063c530967d14611039578063df47ad8e1461119f57610211565b80637b3adae114610ba75780637e25dce714610c6e57806388fcfe6d14610dca578063949c7d1414610eb957610211565b806332543fa9116101a8578063543d3cef11610177578063543d3cef146109065780635687fe8114610a335780636a2fe8c314610a6b5780636ef8720014610ad757806377dac67814610b3957610211565b806332543fa9146106475780633741ae9c146107385780633958a9691461086c5780634232d743146108ce57610211565b80632324d260116101e45780632324d2601461036e57806325ca4c9c146103f45780632a1da982146104505780632f2ea1581461058057610211565b8063119b1af714610216578063175ae518146102785780631d614b59146102fe578063207cc85914610336575b600080fd5b6102626004803603604081101561022c57600080fd5b81019080803573ffffffffffffffffffffffffffffffffffffffff1690602001909291908035906020019092919050505061156f565b6040518082815260200191505060405180910390f35b6102e46004803603606081101561028e57600080fd5b81019080803573ffffffffffffffffffffffffffffffffffffffff169060200190929190803573ffffffffffffffffffffffffffffffffffffffff169060200190929190803590602001909291905050506116b2565b604051808215151515815260200191505060405180910390f35b6103346004803603604081101561031457600080fd5b8101908080359060200190929190803590602001909291905050506118a7565b005b61036c6004803603604081101561034c57600080fd5b810190808035906020019092919080359060200190929190505050611af7565b005b6103da6004803603606081101561038457600080fd5b81019080803573ffffffffffffffffffffffffffffffffffffffff169060200190929190803573ffffffffffffffffffffffffffffffffffffffff16906020019092919080359060200190929190505050611c9a565b604051808215151515815260200191505060405180910390f35b6104366004803603602081101561040a57600080fd5b81019080803573ffffffffffffffffffffffffffffffffffffffff169060200190929190505050611eb1565b604051808215151515815260200191505060405180910390f35b61047c6004803603602081101561046657600080fd5b8101908080359060200190929190505050611ed3565b604051808973ffffffffffffffffffffffffffffffffffffffff1673ffffffffffffffffffffffffffffffffffffffff1681526020018873ffffffffffffffffffffffffffffffffffffffff1673ffffffffffffffffffffffffffffffffffffffff16815260200187815260200180602001868152602001858152602001848152602001838152602001828103825287818151815260200191508051906020019080838360005b8381101561053e578082015181840152602081019050610523565b50505050905090810190601f16801561056b5780820380516001836020036101000a031916815260200191505b50995050505050505050505060405180910390f35b6106456004803603604081101561059657600080fd5b81019080803590602001906401000000008111156105b357600080fd5b8201836020820111156105c557600080fd5b803590602001918460018302840111640100000000831117156105e757600080fd5b91908080601f016020809104026020016040519081016040528093929190818152602001838380828437600081840152601f19601f820116905080830192505050505050509192919290803515159060200190929190505050612030565b005b6107366004803603608081101561065d57600080fd5b81019080803573ffffffffffffffffffffffffffffffffffffffff16906020019092919080359060200190929190803590602001906401000000008111156106a457600080fd5b8201836020820111156106b657600080fd5b803590602001918460018302840111640100000000831117156106d857600080fd5b91908080601f016020809104026020016040519081016040528093929190818152602001838380828437600081840152601f19601f8201169050808301925050505050505091929192908035151590602001909291905050506120cf565b005b61077a6004803603602081101561074e57600080fd5b81019080803573ffffffffffffffffffffffffffffffffffffffff16906020019092919050505061249d565b60405180806020018060200184151515158152602001838103835286818151815260200191508051906020019080838360005b838110156107c85780820151818401526020810190506107ad565b50505050905090810190601f1680156107f55780820380516001836020036101000a031916815260200191505b50838103825285818151815260200191508051906020019080838360005b8381101561082e578082015181840152602081019050610813565b50505050905090810190601f16801561085b5780820380516001836020036101000a031916815260200191505b509550505050505060405180910390f35b6108b86004803603604081101561088257600080fd5b81019080803573ffffffffffffffffffffffffffffffffffffffff16906020019092919080359060200190929190505050612578565b6040518082815260200191505060405180910390f35b610904600480360360408110156108e457600080fd5b8101908080359060200190929190803590602001909291905050506125f9565b005b6109326004803603602081101561091c57600080fd5b8101908080359060200190929190505050612951565b604051808873ffffffffffffffffffffffffffffffffffffffff1673ffffffffffffffffffffffffffffffffffffffff1681526020018773ffffffffffffffffffffffffffffffffffffffff1673ffffffffffffffffffffffffffffffffffffffff1681526020018681526020018060200185151515158152602001848152602001838152602001828103825286818151815260200191508051906020019080838360005b838110156109f25780820151818401526020810190506109d7565b50505050905090810190601f168015610a1f5780820380516001836020036101000a031916815260200191505b509850505050505050505060405180910390f35b610a6960048036036040811015610a4957600080fd5b810190808035906020019092919080359060200190929190505050612ab2565b005b610ac160048036036060811015610a8157600080fd5b81019080803573ffffffffffffffffffffffffffffffffffffffff1690602001909291908035906020019092919080359060200190929190505050612ede565b6040518082815260200191505060405180910390f35b610b2360048036036040811015610aed57600080fd5b81019080803573ffffffffffffffffffffffffffffffffffffffff16906020019092919080359060200190929190505050612fee565b6040518082815260200191505060405180910390f35b610b6560048036036020811015610b4f57600080fd5b810190808035906020019092919050505061306f565b604051808273ffffffffffffffffffffffffffffffffffffffff1673ffffffffffffffffffffffffffffffffffffffff16815260200191505060405180910390f35b610c6c60048036036040811015610bbd57600080fd5b8101908080359060200190640100000000811115610bda57600080fd5b820183602082011115610bec57600080fd5b80359060200191846001830284011164010000000083111715610c0e57600080fd5b91908080601f016020809104026020016040519081016040528093929190818152602001838380828437600081840152601f19601f8201169050808301925050505050505091929192908035151590602001909291905050506130b0565b005b610dc860048036036060811015610c8457600080fd5b8101908080359060200190640100000000811115610ca157600080fd5b820183602082011115610cb357600080fd5b80359060200191846001830284011164010000000083111715610cd557600080fd5b91908080601f016020809104026020016040519081016040528093929190818152602001838380828437600081840152601f19601f82011690508083019250505050505050919291929080359060200190640100000000811115610d3857600080fd5b820183602082011115610d4a57600080fd5b80359060200191846001830284011164010000000083111715610d6c57600080fd5b91908080601f016020809104026020016040519081016040528093929190818152602001838380828437600081840152601f19601f82011690508083019250505050505050919291929080359060200190929190505050613131565b005b610eb760048036036080811015610de057600080fd5b81019080803573ffffffffffffffffffffffffffffffffffffffff169060200190929190803590602001909291908035906020019092919080359060200190640100000000811115610e3157600080fd5b820183602082011115610e4357600080fd5b80359060200191846001830284011164010000000083111715610e6557600080fd5b91908080601f016020809104026020016040519081016040528093929190818152602001838380828437600081840152601f19601f82011690508083019250505050505050919291929050505061338b565b005b610ee560048036036020811015610ecf57600080fd5b81019080803590602001909291905050506137f8565b604051808273ffffffffffffffffffffffffffffffffffffffff1673ffffffffffffffffffffffffffffffffffffffff16815260200191505060405180910390f35b610f7d60048036036060811015610f3d57600080fd5b81019080803573ffffffffffffffffffffffffffffffffffffffff16906020019092919080359060200190929190803590602001909291905050506138b3565b6040518082815260200191505060405180910390f35b610fd560048036036020811015610fa957600080fd5b81019080803573ffffffffffffffffffffffffffffffffffffffff1690602001909291905050506139c3565b604051808215151515815260200191505060405180910390f35b610ff7613a1c565b604051808273ffffffffffffffffffffffffffffffffffffffff1673ffffffffffffffffffffffffffffffffffffffff16815260200191505060405180910390f35b61119d6004803603608081101561104f57600080fd5b81019080803590602001909291908035906020019064010000000081111561107657600080fd5b82018360208201111561108857600080fd5b803590602001918460018302840111640100000000831117156110aa57600080fd5b91908080601f016020809104026020016040519081016040528093929190818152602001838380828437600081840152601f19601f8201169050808301925050505050505091929192908035906020019064010000000081111561110d57600080fd5b82018360208201111561111f57600080fd5b8035906020019184600183028401116401000000008311171561114157600080fd5b91908080601f016020809104026020016040519081016040528093929190818152602001838380828437600081840152601f19601f82011690508083019250505050505050919291929080359060200190929190505050613a24565b005b6111eb600480360360408110156111b557600080fd5b81019080803573ffffffffffffffffffffffffffffffffffffffff16906020019092919080359060200190929190505050613b59565b6040518082815260200191505060405180910390f35b61122d6004803603602081101561121757600080fd5b8101908080359060200190929190505050613c9c565b005b611237613e66565b6040518082815260200191505060405180910390f35b6112996004803603604081101561126357600080fd5b81019080803573ffffffffffffffffffffffffffffffffffffffff16906020019092919080359060200190929190505050613e73565b604051808060200180602001868152602001858152602001848152602001838103835288818151815260200191508051906020019080838360005b838110156112ef5780820151818401526020810190506112d4565b50505050905090810190601f16801561131c5780820380516001836020036101000a031916815260200191505b50838103825287818151815260200191508051906020019080838360005b8381101561135557808201518184015260208101905061133a565b50505050905090810190601f1680156113825780820380516001836020036101000a031916815260200191505b5097505050505050505060405180910390f35b6113d7600480360360208110156113ab57600080fd5b81019080803573ffffffffffffffffffffffffffffffffffffffff169060200190929190505050613ffe565b6040518082815260200191505060405180910390f35b61142f6004803603602081101561140357600080fd5b81019080803573ffffffffffffffffffffffffffffffffffffffff1690602001909291905050506140b2565b604051808215151515815260200191505060405180910390f35b61148b6004803603602081101561145f57600080fd5b81019080803573ffffffffffffffffffffffffffffffffffffffff16906020019092919050505061410a565b6040518082815260200191505060405180910390f35b6114e3600480360360208110156114b757600080fd5b81019080803573ffffffffffffffffffffffffffffffffffffffff1690602001909291905050506141cd565b6040518082815260200191505060405180910390f35b61153b6004803603602081101561150f57600080fd5b81019080803573ffffffffffffffffffffffffffffffffffffffff169060200190929190505050614281565b6040518082815260200191505060405180910390f35b611559614336565b6040518082815260200191505060405180910390f35b60008261157b816140b2565b6115d0576040517f08c379a00000000000000000000000000000000000000000000000000000000081526004018080602001828103825260288152602001806152ee6028913960400191505060405180910390fd5b60008060008673ffffffffffffffffffffffffffffffffffffffff1673ffffffffffffffffffffffffffffffffffffffff16815260200190815260200160002090508060060180549050841061168e576040517f08c379a000000000000000000000000000000000000000000000000000000000815260040180806020018281038252600e8152602001807f496478206e6f742076616c69642100000000000000000000000000000000000081525060200191505060405180910390fd5b80600601848154811061169d57fe5b90600052602060002001549250505092915050565b6000836116be816140b2565b611713576040517f08c379a00000000000000000000000000000000000000000000000000000000081526004018080602001828103825260288152602001806152ee6028913960400191505060405180910390fd5b8361171d816139c3565b611772576040517f08c379a00000000000000000000000000000000000000000000000000000000081526004018080602001828103825260268152602001806152176026913960400191505060405180910390fd5b600061177e8686614343565b9050600080600080600090505b846006018054905081101561189457600060048660060183815481106117ad57fe5b9060005260206000200154815481106117c257fe5b906000526020600020906007020190508060000160009054906101000a900473ffffffffffffffffffffffffffffffffffffffff1694508060040160019054906101000a900461ffff169350806006015492508b73ffffffffffffffffffffffffffffffffffffffff168573ffffffffffffffffffffffffffffffffffffffff1614801561186357506000600381111561185857fe5b61ffff168461ffff16145b80156118725750426001840111155b15611886576001985050505050505061189e565b50808060010191505061178b565b5060009650505050505b50509392505050565b6000600583815481106118b657fe5b906000526020600020906009020190503373ffffffffffffffffffffffffffffffffffffffff168160010160009054906101000a900473ffffffffffffffffffffffffffffffffffffffff1673ffffffffffffffffffffffffffffffffffffffff161461196e576040517f08c379a00000000000000000000000000000000000000000000000000000000081526004018080602001828103825260318152602001806153166031913960400191505060405180910390fd5b426201518082600801540111156119d0576040517f08c379a000000000000000000000000000000000000000000000000000000000815260040180806020018281038252602281526020018061523d6022913960400191505060405180910390fd5b8181600501819055507f7d21cf33755183f57b773a25d19ab84fdb5714c2b7af73b82b200627f1eeff1f8160000160009054906101000a900473ffffffffffffffffffffffffffffffffffffffff168260010160009054906101000a900473ffffffffffffffffffffffffffffffffffffffff16836002015484600501548560040160009054906101000a900461ffff16604051808673ffffffffffffffffffffffffffffffffffffffff1673ffffffffffffffffffffffffffffffffffffffff1681526020018573ffffffffffffffffffffffffffffffffffffffff1673ffffffffffffffffffffffffffffffffffffffff1681526020018481526020018381526020018261ffff1661ffff1681526020019550505050505060405180910390a1505050565b33611b01816139c3565b611b56576040517f08c379a00000000000000000000000000000000000000000000000000000000081526004018080602001828103825260268152602001806152176026913960400191505060405180910390fd5b600280811115611b6257fe5b8210611bd6576040517f08c379a00000000000000000000000000000000000000000000000000000000081526004018080602001828103825260188152602001807f4e657720737461747573206973206e6f742076616c696421000000000000000081525060200191505060405180910390fd5b6000611be23385614343565b9050828160040160006101000a81548161ffff021916908361ffff1602179055507f5c33f08dc801a360efd7d23e6adb47c6216cc8cee02946a56953b3849bf95d803382600501548360040160009054906101000a900461ffff16604051808473ffffffffffffffffffffffffffffffffffffffff1673ffffffffffffffffffffffffffffffffffffffff1681526020018381526020018261ffff1661ffff168152602001935050505060405180910390a150505050565b600083611ca6816140b2565b611cfb576040517f08c379a00000000000000000000000000000000000000000000000000000000081526004018080602001828103825260288152602001806152ee6028913960400191505060405180910390fd5b83611d05816139c3565b611d5a576040517f08c379a00000000000000000000000000000000000000000000000000000000081526004018080602001828103825260268152602001806152176026913960400191505060405180910390fd5b6000611d668686614343565b9050600080600090505b8260070180549050811015611ea057826007018181548110611d8e57fe5b906000526020600020015491508873ffffffffffffffffffffffffffffffffffffffff1660058381548110611dbf57fe5b906000526020600020906009020160000160009054906101000a900473ffffffffffffffffffffffffffffffffffffffff1673ffffffffffffffffffffffffffffffffffffffff16148015611e53575060006003811115611e1c57fe5b61ffff1660058381548110611e2d57fe5b906000526020600020906009020160040160009054906101000a900461ffff1661ffff16145b8015611e825750426212750060058481548110611e6c57fe5b9060005260206000209060090201600701540111155b15611e935760019550505050611ea8565b8080600101915050611d70565b506000945050505b50509392505050565b6000611ebc826140b2565b80611ecc5750611ecb826139c3565b5b9050919050565b60008060006060600080600080600060058a81548110611eef57fe5b906000526020600020906009020190508060000160009054906101000a900473ffffffffffffffffffffffffffffffffffffffff168160010160009054906101000a900473ffffffffffffffffffffffffffffffffffffffff1682600201548360030184600501548560040160009054906101000a900461ffff1661ffff1686600701548760080154848054600181600116156101000203166002900480601f01602080910402602001604051908101604052809291908181526020018280546001816001161561010002031660029004801561200d5780601f10611fe25761010080835404028352916020019161200d565b820191906000526020600020905b815481529060010190602001808311611ff057829003601f168201915b505050505094509850985098509850985098509850985050919395975091939597565b3361203a81611eb1565b6120ac576040517f08c379a000000000000000000000000000000000000000000000000000000000815260040180806020018281038252601b8152602001807f41646472657373206d75737420626520726567697374657265642e000000000081525060200191505060405180910390fd5b81156120c0576120bb83614429565b6120ca565b6120c983614584565b5b505050565b60008082156120e3578591503390506120ea565b3391508590505b6120f58183876116b2565b15612168576040517f08c379a00000000000000000000000000000000000000000000000000000000081526004018080602001828103825260188152602001807f45786973742061637469766520696e7669746174696f6e21000000000000000081525060200191505060405180910390fd5b612170614f3e565b6040518061010001604052808373ffffffffffffffffffffffffffffffffffffffff1681526020018473ffffffffffffffffffffffffffffffffffffffff1681526020018781526020018681526020018515158152602001600060038111156121d557fe5b61ffff1681526020016000815260200142815250905060016004829080600181540180825580915050906001820390600052602060002090600702016000909192909190915060008201518160000160006101000a81548173ffffffffffffffffffffffffffffffffffffffff021916908373ffffffffffffffffffffffffffffffffffffffff16021790555060208201518160010160006101000a81548173ffffffffffffffffffffffffffffffffffffffff021916908373ffffffffffffffffffffffffffffffffffffffff1602179055506040820151816002015560608201518160030190805190602001906122cf929190614fb5565b5060808201518160040160006101000a81548160ff02191690831515021790555060a08201518160040160016101000a81548161ffff021916908361ffff16021790555060c0820151816005015560e082015181600601555050038160c0018181525050600061233f8488614343565b9050806006018260c00151908060018154018082558091505090600182039060005260206000200160009091929091909150555060008060008573ffffffffffffffffffffffffffffffffffffffff1673ffffffffffffffffffffffffffffffffffffffff1681526020019081526020016000209050806005018360c0015190806001815401808255809150509060018203906000526020600020016000909192909190915055507f8d5524f5770b5dd53c0bbe01b49fb302d28a45750c41de379e39b222fed0d2de84868a89604051808573ffffffffffffffffffffffffffffffffffffffff1673ffffffffffffffffffffffffffffffffffffffff1681526020018473ffffffffffffffffffffffffffffffffffffffff1673ffffffffffffffffffffffffffffffffffffffff1681526020018381526020018215151515815260200194505050505060405180910390a1505050505050505050565b6060806000836124ac81611eb1565b61251e576040517f08c379a000000000000000000000000000000000000000000000000000000000815260040180806020018281038252601b8152602001807f41646472657373206d75737420626520726567697374657265642e000000000081525060200191505060405180910390fd5b60608061252a876140b2565b1561255257612538876146e0565b508092508193505050818160019550955095505050612570565b61255b876148ec565b80925081935050508181600095509550955050505b509193909250565b600082612584816139c3565b6125d9576040517f08c379a00000000000000000000000000000000000000000000000000000000081526004018080602001828103825260268152602001806152176026913960400191505060405180910390fd5b60006125e58585614343565b905080600701805490509250505092915050565b813360006005838154811061260a57fe5b906000526020600020906009020190506000600381111561262757fe5b61ffff168160040160009054906101000a900461ffff1661ffff161480156126585750426212750082600701540110155b6126ca576040517f08c379a00000000000000000000000000000000000000000000000000000000081526004018080602001828103825260198152602001807f54686973206f6666657220686173206265656e206c6f636b210000000000000081525060200191505060405180910390fd5b8173ffffffffffffffffffffffffffffffffffffffff168160000160009054906101000a900473ffffffffffffffffffffffffffffffffffffffff1673ffffffffffffffffffffffffffffffffffffffff1614612772576040517f08c379a000000000000000000000000000000000000000000000000000000000815260040180806020018281038252602581526020018061525f6025913960400191505060405180910390fd5b60038081111561277e57fe5b84106127f2576040517f08c379a00000000000000000000000000000000000000000000000000000000081526004018080602001828103825260188152602001807f4e657720737461747573206973206e6f742076616c696421000000000000000081525060200191505060405180910390fd5b60006005868154811061280157fe5b90600052602060002090600902019050848160040160006101000a81548161ffff021916908361ffff1602179055507f7d21cf33755183f57b773a25d19ab84fdb5714c2b7af73b82b200627f1eeff1f8160000160009054906101000a900473ffffffffffffffffffffffffffffffffffffffff168260010160009054906101000a900473ffffffffffffffffffffffffffffffffffffffff16836002015484600501548560040160009054906101000a900461ffff16604051808673ffffffffffffffffffffffffffffffffffffffff1673ffffffffffffffffffffffffffffffffffffffff1681526020018573ffffffffffffffffffffffffffffffffffffffff1673ffffffffffffffffffffffffffffffffffffffff1681526020018481526020018381526020018261ffff1661ffff1681526020019550505050505060405180910390a1505050505050565b600080600060606000806000806004898154811061296b57fe5b906000526020600020906007020190508060000160009054906101000a900473ffffffffffffffffffffffffffffffffffffffff168160010160009054906101000a900473ffffffffffffffffffffffffffffffffffffffff168260020154836003018460040160009054906101000a900460ff168560040160019054906101000a900461ffff1661ffff168660060154838054600181600116156101000203166002900480601f016020809104026020016040519081016040528092919081815260200182805460018160011615610100020316600290048015612a915780601f10612a6657610100808354040283529160200191612a91565b820191906000526020600020905b815481529060010190602001808311612a7457829003601f168201915b50505050509350975097509750975097509750975050919395979092949650565b8133600060048381548110612ac357fe5b9060005260206000209060070201905060006003811115612ae057fe5b61ffff168160040160019054906101000a900461ffff1661ffff16148015612b0f575042600182600601540110155b612b81576040517f08c379a000000000000000000000000000000000000000000000000000000000815260040180806020018281038252601e8152602001807f5468697320696e7669746174696f6e20686173206265656e206c6f636b21000081525060200191505060405180910390fd5b8060040160009054906101000a900460ff1615612c45578173ffffffffffffffffffffffffffffffffffffffff168160010160009054906101000a900473ffffffffffffffffffffffffffffffffffffffff1673ffffffffffffffffffffffffffffffffffffffff1614612c40576040517f08c379a00000000000000000000000000000000000000000000000000000000081526004018080602001828103825260288152602001806152846028913960400191505060405180910390fd5b612cee565b8173ffffffffffffffffffffffffffffffffffffffff168160000160009054906101000a900473ffffffffffffffffffffffffffffffffffffffff1673ffffffffffffffffffffffffffffffffffffffff1614612ced576040517f08c379a000000000000000000000000000000000000000000000000000000000815260040180806020018281038252602a8152602001806151ed602a913960400191505060405180910390fd5b5b600380811115612cfa57fe5b8410612d6e576040517f08c379a00000000000000000000000000000000000000000000000000000000081526004018080602001828103825260188152602001807f4e657720737461747573206973206e6f742076616c696421000000000000000081525060200191505060405180910390fd5b600060048681548110612d7d57fe5b90600052602060002090600702019050848160040160016101000a81548161ffff021916908361ffff1602179055507fe9cb88df369c436b00b6f1fb58b649423484938fa6bfcdc6eccf8b5f21c8a6638160000160009054906101000a900473ffffffffffffffffffffffffffffffffffffffff168260010160009054906101000a900473ffffffffffffffffffffffffffffffffffffffff1683600201548460040160009054906101000a900460ff168560040160019054906101000a900461ffff16604051808673ffffffffffffffffffffffffffffffffffffffff1673ffffffffffffffffffffffffffffffffffffffff1681526020018573ffffffffffffffffffffffffffffffffffffffff1673ffffffffffffffffffffffffffffffffffffffff168152602001848152602001831515151581526020018261ffff1661ffff1681526020019550505050505060405180910390a1505050505050565b600083612eea816139c3565b612f3f576040517f08c379a00000000000000000000000000000000000000000000000000000000081526004018080602001828103825260268152602001806152176026913960400191505060405180910390fd5b6000612f4b8686614343565b905080600701805490508410612fc9576040517f08c379a000000000000000000000000000000000000000000000000000000000815260040180806020018281038252600e8152602001807f496478206e6f742076616c69642100000000000000000000000000000000000081525060200191505060405180910390fd5b806007018481548110612fd857fe5b9060005260206000200154925050509392505050565b600082612ffa816139c3565b61304f576040517f08c379a00000000000000000000000000000000000000000000000000000000081526004018080602001828103825260268152602001806152176026913960400191505060405180910390fd5b600061305b8585614343565b905080600601805490509250505092915050565b60006003828154811061307e57fe5b9060005260206000200160009054906101000a900473ffffffffffffffffffffffffffffffffffffffff169050919050565b6130b933611eb1565b1561310f576040517f08c379a00000000000000000000000000000000000000000000000000000000081526004018080602001828103825260218152602001806152cd6021913960400191505060405180910390fd5b80156131235761311e82614adc565b61312d565b61312c82614d3f565b5b5050565b3361313b816139c3565b613190576040517f08c379a00000000000000000000000000000000000000000000000000000000081526004018080602001828103825260268152602001806152176026913960400191505060405180910390fd5b6000600260003373ffffffffffffffffffffffffffffffffffffffff1673ffffffffffffffffffffffffffffffffffffffff16815260200190815260200160002090506131db615035565b85816000018190525084816020018190525083816040018181525050838160600181815250506000600281111561320e57fe5b816080019061ffff16908161ffff16815250506001826003018290806001815401808255809150509060018203906000526020600020906008020160009091929091909150600082015181600001908051906020019061326f929190614fb5565b50602082015181600101908051906020019061328c929190614fb5565b50604082015181600201556060820151816003015560808201518160040160006101000a81548161ffff021916908361ffff16021790555060a0820151816005015560c08201518160060190805190602001906132ea92919061507e565b5060e082015181600701908051906020019061330792919061507e565b505050038160a00181815250507f3b357f60132bc5731c5b7cad44cd6c21297cb90e82f468e1c70f0a5d863605d0338260a00151604051808373ffffffffffffffffffffffffffffffffffffffff1673ffffffffffffffffffffffffffffffffffffffff1681526020018281526020019250505060405180910390a1505050505050565b600033905060008590506133a0818387611c9a565b15613413576040517f08c379a00000000000000000000000000000000000000000000000000000000081526004018080602001828103825260138152602001807f457869737420616374697665206f66666572210000000000000000000000000081525060200191505060405180910390fd5b6000600281111561342057fe5b61ffff166000808373ffffffffffffffffffffffffffffffffffffffff1673ffffffffffffffffffffffffffffffffffffffff16815260200190815260200160002060020160009054906101000a900461ffff1661ffff16146134ce576040517f08c379a00000000000000000000000000000000000000000000000000000000081526004018080602001828103825260218152602001806152ac6021913960400191505060405180910390fd5b6134d66150cb565b6040518061012001604052808373ffffffffffffffffffffffffffffffffffffffff1681526020018473ffffffffffffffffffffffffffffffffffffffff1681526020018781526020018581526020016000600381111561353357fe5b61ffff1681526020018681526020016000815260200142815260200142815250905060016005829080600181540180825580915050906001820390600052602060002090600902016000909192909190915060008201518160000160006101000a81548173ffffffffffffffffffffffffffffffffffffffff021916908373ffffffffffffffffffffffffffffffffffffffff16021790555060208201518160010160006101000a81548173ffffffffffffffffffffffffffffffffffffffff021916908373ffffffffffffffffffffffffffffffffffffffff160217905550604082015181600201556060820151816003019080519060200190613639929190614fb5565b5060808201518160040160006101000a81548161ffff021916908361ffff16021790555060a0820151816005015560c0820151816006015560e0820151816007015561010082015181600801555050038160c0018181525050600061369e8488614343565b9050806007018260c00151908060018154018082558091505090600182039060005260206000200160009091929091909150555060008060008573ffffffffffffffffffffffffffffffffffffffff1673ffffffffffffffffffffffffffffffffffffffff1681526020019081526020016000209050806006018360c0015190806001815401808255809150509060018203906000526020600020016000909192909190915055507fd0195acff3886ffdef8be00dda20c0150228bc434e265d157bff8d574a78cfdc84868a8a604051808573ffffffffffffffffffffffffffffffffffffffff1673ffffffffffffffffffffffffffffffffffffffff1681526020018473ffffffffffffffffffffffffffffffffffffffff1673ffffffffffffffffffffffffffffffffffffffff16815260200183815260200182815260200194505050505060405180910390a1505050505050505050565b60006001805490508210613874576040517f08c379a000000000000000000000000000000000000000000000000000000000815260040180806020018281038252600e8152602001807f496478206e6f742076616c69642100000000000000000000000000000000000081525060200191505060405180910390fd5b6001828154811061388157fe5b9060005260206000200160009054906101000a900473ffffffffffffffffffffffffffffffffffffffff169050919050565b6000836138bf816139c3565b613914576040517f08c379a00000000000000000000000000000000000000000000000000000000081526004018080602001828103825260268152602001806152176026913960400191505060405180910390fd5b60006139208686614343565b90508060060180549050841061399e576040517f08c379a000000000000000000000000000000000000000000000000000000000815260040180806020018281038252600e8152602001807f496478206e6f742076616c69642100000000000000000000000000000000000081525060200191505060405180910390fd5b8060060184815481106139ad57fe5b9060005260206000200154925050509392505050565b6000600260008373ffffffffffffffffffffffffffffffffffffffff1673ffffffffffffffffffffffffffffffffffffffff16815260200190815260200160002060040160009054906101000a900460ff169050919050565b600033905090565b33613a2e816139c3565b613a83576040517f08c379a00000000000000000000000000000000000000000000000000000000081526004018080602001828103825260268152602001806152176026913960400191505060405180910390fd5b6000613a8f3387614343565b905084816000019080519060200190613aa9929190615147565b5083816001019080519060200190613ac2929190615147565b508281600201819055508060030154831015613ae2578281600301819055505b7f9ec1e886b0c3d13f907ff3dfe28a5944b9ac6f9d9dce5616770673d700a241fa338260050154604051808373ffffffffffffffffffffffffffffffffffffffff1673ffffffffffffffffffffffffffffffffffffffff1681526020018281526020019250505060405180910390a1505050505050565b600082613b65816140b2565b613bba576040517f08c379a00000000000000000000000000000000000000000000000000000000081526004018080602001828103825260288152602001806152ee6028913960400191505060405180910390fd5b60008060008673ffffffffffffffffffffffffffffffffffffffff1673ffffffffffffffffffffffffffffffffffffffff168152602001908152602001600020905080600501805490508410613c78576040517f08c379a000000000000000000000000000000000000000000000000000000000815260040180806020018281038252600e8152602001807f496478206e6f742076616c69642100000000000000000000000000000000000081525060200191505060405180910390fd5b806005018481548110613c8757fe5b90600052602060002001549250505092915050565b33613ca6816140b2565b613cfb576040517f08c379a00000000000000000000000000000000000000000000000000000000081526004018080602001828103825260288152602001806152ee6028913960400191505060405180910390fd5b600280811115613d0757fe5b8210613d7b576040517f08c379a00000000000000000000000000000000000000000000000000000000081526004018080602001828103825260178152602001807f4e657720737461747573206973206e6f742076616c696400000000000000000081525060200191505060405180910390fd5b60008060003373ffffffffffffffffffffffffffffffffffffffff1673ffffffffffffffffffffffffffffffffffffffff1681526020019081526020016000209050828160020160006101000a81548161ffff021916908361ffff1602179055507ff4ccf96c8694a982c5e9839011d420af6d3d7c1de10e4d8363c21cbdec257285338260020160009054906101000a900461ffff16604051808373ffffffffffffffffffffffffffffffffffffffff1673ffffffffffffffffffffffffffffffffffffffff1681526020018261ffff1661ffff1681526020019250505060405180910390a1505050565b6000600380549050905090565b606080600080600080613e868888614343565b90508060000181600101826002015483600301548460040160009054906101000a900461ffff1661ffff16848054600181600116156101000203166002900480601f016020809104026020016040519081016040528092919081815260200182805460018160011615610100020316600290048015613f465780601f10613f1b57610100808354040283529160200191613f46565b820191906000526020600020905b815481529060010190602001808311613f2957829003601f168201915b50505050509450838054600181600116156101000203166002900480601f016020809104026020016040519081016040528092919081815260200182805460018160011615610100020316600290048015613fe25780601f10613fb757610100808354040283529160200191613fe2565b820191906000526020600020905b815481529060010190602001808311613fc557829003601f168201915b5050505050935095509550955095509550509295509295909350565b60008161400a816140b2565b61405f576040517f08c379a00000000000000000000000000000000000000000000000000000000081526004018080602001828103825260288152602001806152ee6028913960400191505060405180910390fd5b60008060008573ffffffffffffffffffffffffffffffffffffffff1673ffffffffffffffffffffffffffffffffffffffff1681526020019081526020016000209050806006018054905092505050919050565b60008060008373ffffffffffffffffffffffffffffffffffffffff1673ffffffffffffffffffffffffffffffffffffffff16815260200190815260200160002060040160009054906101000a900460ff169050919050565b600081614116816140b2565b61416b576040517f08c379a00000000000000000000000000000000000000000000000000000000081526004018080602001828103825260288152602001806152ee6028913960400191505060405180910390fd5b60008060008573ffffffffffffffffffffffffffffffffffffffff1673ffffffffffffffffffffffffffffffffffffffff16815260200190815260200160002090508060020160009054906101000a900461ffff1661ffff1692505050919050565b6000816141d9816140b2565b61422e576040517f08c379a00000000000000000000000000000000000000000000000000000000081526004018080602001828103825260288152602001806152ee6028913960400191505060405180910390fd5b60008060008573ffffffffffffffffffffffffffffffffffffffff1673ffffffffffffffffffffffffffffffffffffffff1681526020019081526020016000209050806005018054905092505050919050565b60008161428d816139c3565b6142e2576040517f08c379a00000000000000000000000000000000000000000000000000000000081526004018080602001828103825260268152602001806152176026913960400191505060405180910390fd5b6000600260008573ffffffffffffffffffffffffffffffffffffffff1673ffffffffffffffffffffffffffffffffffffffff1681526020019081526020016000209050806003018054905092505050919050565b6000600180549050905090565b600080600260008573ffffffffffffffffffffffffffffffffffffffff1673ffffffffffffffffffffffffffffffffffffffff168152602001908152602001600020905080600301805490508310614403576040517f08c379a00000000000000000000000000000000000000000000000000000000081526004018080602001828103825260128152602001807f4a6f6220696478206e6f742076616c696421000000000000000000000000000081525060200191505060405180910390fd5b80600301838154811061441257fe5b906000526020600020906008020191505092915050565b33614433816140b2565b614488576040517f08c379a00000000000000000000000000000000000000000000000000000000081526004018080602001828103825260288152602001806152ee6028913960400191505060405180910390fd5b60008060003373ffffffffffffffffffffffffffffffffffffffff1673ffffffffffffffffffffffffffffffffffffffff1681526020019081526020016000209050828160010190805190602001906144e2929190615147565b507fbd0357182a153db357541c210952a08470aef8f10afa243965cfd9f365e35eae33604051808273ffffffffffffffffffffffffffffffffffffffff1673ffffffffffffffffffffffffffffffffffffffff16815260200180602001828103825260098152602001807f4170706c6963616e7400000000000000000000000000000000000000000000008152506020019250505060405180910390a1505050565b3361458e816139c3565b6145e3576040517f08c379a00000000000000000000000000000000000000000000000000000000081526004018080602001828103825260268152602001806152176026913960400191505060405180910390fd5b6000600260003373ffffffffffffffffffffffffffffffffffffffff1673ffffffffffffffffffffffffffffffffffffffff16815260200190815260200160002090508281600101908051906020019061463e929190615147565b507fbd0357182a153db357541c210952a08470aef8f10afa243965cfd9f365e35eae33604051808273ffffffffffffffffffffffffffffffffffffffff1673ffffffffffffffffffffffffffffffffffffffff16815260200180602001828103825260078152602001807f436f6d70616e79000000000000000000000000000000000000000000000000008152506020019250505060405180910390a1505050565b6060806000836146ef816140b2565b614744576040517f08c379a00000000000000000000000000000000000000000000000000000000081526004018080602001828103825260288152602001806152ee6028913960400191505060405180910390fd5b60008060008773ffffffffffffffffffffffffffffffffffffffff1673ffffffffffffffffffffffffffffffffffffffff168152602001908152602001600020905080600001816001018260020160009054906101000a900461ffff1661ffff16828054600181600116156101000203166002900480601f01602080910402602001604051908101604052809291908181526020018280546001816001161561010002031660029004801561483a5780601f1061480f5761010080835404028352916020019161483a565b820191906000526020600020905b81548152906001019060200180831161481d57829003601f168201915b50505050509250818054600181600116156101000203166002900480601f0160208091040260200160405190810160405280929190818152602001828054600181600116156101000203166002900480156148d65780601f106148ab576101008083540402835291602001916148d6565b820191906000526020600020905b8154815290600101906020018083116148b957829003601f168201915b5050505050915094509450945050509193909250565b606080826148f9816139c3565b61494e576040517f08c379a00000000000000000000000000000000000000000000000000000000081526004018080602001828103825260268152602001806152176026913960400191505060405180910390fd5b6000600260008673ffffffffffffffffffffffffffffffffffffffff1673ffffffffffffffffffffffffffffffffffffffff16815260200190815260200160002090508060000181600101818054600181600116156101000203166002900480601f016020809104026020016040519081016040528092919081815260200182805460018160011615610100020316600290048015614a2e5780601f10614a0357610100808354040283529160200191614a2e565b820191906000526020600020905b815481529060010190602001808311614a1157829003601f168201915b50505050509150808054600181600116156101000203166002900480601f016020809104026020016040519081016040528092919081815260200182805460018160011615610100020316600290048015614aca5780601f10614a9f57610100808354040283529160200191614aca565b820191906000526020600020905b815481529060010190602001808311614aad57829003601f168201915b50505050509050935093505050915091565b806000803373ffffffffffffffffffffffffffffffffffffffff1673ffffffffffffffffffffffffffffffffffffffff1681526020019081526020016000206000019080519060200190614b31929190615147565b5060016000803373ffffffffffffffffffffffffffffffffffffffff1673ffffffffffffffffffffffffffffffffffffffff16815260200190815260200160002060040160006101000a81548160ff02191690831515021790555060016002811115614b9957fe5b6000803373ffffffffffffffffffffffffffffffffffffffff1673ffffffffffffffffffffffffffffffffffffffff16815260200190815260200160002060020160006101000a81548161ffff021916908361ffff1602179055506001803390806001815401808255809150509060018203906000526020600020016000909192909190916101000a81548173ffffffffffffffffffffffffffffffffffffffff021916908373ffffffffffffffffffffffffffffffffffffffff160217905550036000803373ffffffffffffffffffffffffffffffffffffffff1673ffffffffffffffffffffffffffffffffffffffff168152602001908152602001600020600301819055507f5c9c91395d7033f1f965e3a48d0bf7fa6703b3d41ed2bed7728e6beecc36461e33604051808273ffffffffffffffffffffffffffffffffffffffff1673ffffffffffffffffffffffffffffffffffffffff16815260200180602001828103825260098152602001807f4170706c6963616e7400000000000000000000000000000000000000000000008152506020019250505060405180910390a150565b80600260003373ffffffffffffffffffffffffffffffffffffffff1673ffffffffffffffffffffffffffffffffffffffff1681526020019081526020016000206000019080519060200190614d95929190615147565b506001600260003373ffffffffffffffffffffffffffffffffffffffff1673ffffffffffffffffffffffffffffffffffffffff16815260200190815260200160002060040160006101000a81548160ff021916908315150217905550600160033390806001815401808255809150509060018203906000526020600020016000909192909190916101000a81548173ffffffffffffffffffffffffffffffffffffffff021916908373ffffffffffffffffffffffffffffffffffffffff16021790555003600260003373ffffffffffffffffffffffffffffffffffffffff1673ffffffffffffffffffffffffffffffffffffffff168152602001908152602001600020600201819055507f5c9c91395d7033f1f965e3a48d0bf7fa6703b3d41ed2bed7728e6beecc36461e33604051808273ffffffffffffffffffffffffffffffffffffffff1673ffffffffffffffffffffffffffffffffffffffff16815260200180602001828103825260078152602001807f436f6d70616e79000000000000000000000000000000000000000000000000008152506020019250505060405180910390a150565b604051806101000160405280600073ffffffffffffffffffffffffffffffffffffffff168152602001600073ffffffffffffffffffffffffffffffffffffffff1681526020016000815260200160608152602001600015158152602001600061ffff16815260200160008152602001600081525090565b828054600181600116156101000203166002900490600052602060002090601f016020900481019282601f10614ff657805160ff1916838001178555615024565b82800160010185558215615024579182015b82811115615023578251825591602001919060010190615008565b5b50905061503191906151c7565b5090565b60405180610100016040528060608152602001606081526020016000815260200160008152602001600061ffff1681526020016000815260200160608152602001606081525090565b8280548282559060005260206000209081019282156150ba579160200282015b828111156150b957825182559160200191906001019061509e565b5b5090506150c791906151c7565b5090565b604051806101200160405280600073ffffffffffffffffffffffffffffffffffffffff168152602001600073ffffffffffffffffffffffffffffffffffffffff1681526020016000815260200160608152602001600061ffff168152602001600081526020016000815260200160008152602001600081525090565b828054600181600116156101000203166002900490600052602060002090601f016020900481019282601f1061518857805160ff19168380011785556151b6565b828001600101855582156151b6579182015b828111156151b557825182559160200191906001019061519a565b5b5090506151c391906151c7565b5090565b6151e991905b808211156151e55760008160009055506001016151cd565b5090565b9056fe4f6e6c79206170706c6963616e742063616e20757064617465207468697320696e7669746174696f6e2141646472657373206d757374206265207265676973746572656420617320436f6d70616e792e5061796d656e7420757064617465207374696c6c20696e20636f6f6c20646f776e2e4f6e6c79206170706c6963616e742063616e207570646174652074686973206f666665722e4f6e6c7920636f6d70616e792063616e20757064617465207468697320696e7669746174696f6e214170706c6963616e74206973206e6f74206f70656e20666f72206f666665727321416464726573732073686f756c64206e6f7420626520726567697374657265642e41646472657373206d7573742062652072656769737465726564206173204170706c6963616e742e4d7573742062652074686520636f6d616e7079206163636f756e742077686963682073656e7420746865206f666665722ea265627a7a72315820203078c9f2ff746a5f790df1ec5b52f698866b4a7557cbe85b24d9f8328e2e1264736f6c63430005100032",
  "source": "pragma solidity ^0.5.0;\r\nimport \"./Applicant.sol\";\r\nimport \"./Company.sol\";\r\n\r\ncontract AgencyApp is ApplicantApp, CompanyApp  {\r\n\r\n\r\n    // Struct\r\n    enum interStatus{\r\n        wait,\r\n        accept,\r\n        reject,\r\n        Last\r\n    }\r\n    struct Invitation {\r\n        address applicant;\r\n        address company;\r\n        uint jobIdx;\r\n        string message;\r\n        bool direction; // true: from applicant, false: from company\r\n        uint16 status;\r\n\r\n        uint idx;\r\n        uint256 timestamp;\r\n    }\r\n    uint256 constant invDeadline = 1 seconds;\r\n\r\n\r\n    enum offerStatus{\r\n        wait,\r\n        accept,\r\n        reject,\r\n        Last\r\n    }\r\n    struct Offer {\r\n        address applicant;\r\n        address company;\r\n        uint jobIdx;\r\n        string message;\r\n        uint16 status;\r\n        uint payment;\r\n\r\n        uint idx;\r\n        uint256 createTime;\r\n        uint256 updateTime;\r\n    }\r\n    uint256 constant offerDeadline = 14 days;\r\n    uint256 constant offerCooldown = 1 days;\r\n\r\n    Invitation[] invitations;\r\n    Offer[] offers;\r\n\r\n    // Modifier\r\n    modifier isValid(address addr) {\r\n        require(isAccount(addr), \"Address must be registered.\");\r\n        _;\r\n    }\r\n\r\n    function isAccount(address addr) public view returns(bool) {\r\n        return (isApplicant(addr) || isCompany(addr));\r\n    }\r\n\r\n    modifier modifiableInv(uint invIdx, address addr) {\r\n        Invitation storage inv = invitations[invIdx];\r\n        require(((inv.status == uint16(interStatus.wait)) && (inv.timestamp+invDeadline >= now)), \"This invitation has been lock!\");\r\n        if (inv.direction) { // From applicant\r\n            require(inv.company == addr, \"Only company can update this invitation!\");\r\n        } else { // From company\r\n            require(inv.applicant == addr, \"Only applicant can update this invitation!\");\r\n        }\r\n        _;\r\n    }\r\n\r\n    function existActiveInv(address _applicant, address _company, uint _jobIdx ) \r\n    public view isValidApplicant(_applicant) isValidCompany(_company) returns(bool){\r\n        Job storage job = getJob(_company, _jobIdx);\r\n        address invApp;\r\n        uint16  invStatus;\r\n        uint256 invTime;\r\n        for(uint i=0;i < job.invitations.length;i++){\r\n            Invitation storage inv = invitations[job.invitations[i]];\r\n            invApp = inv.applicant;\r\n            invStatus = inv.status;\r\n            invTime = inv.timestamp;\r\n            if (invApp== _applicant && \r\n                invStatus== uint16(interStatus.wait) && \r\n                invTime+invDeadline <= now ) {\r\n                    return true;\r\n            }\r\n        }\r\n        return false;\r\n    }\r\n\r\n    modifier modifiableOffer(uint offerIdx, address addr) {\r\n        Offer storage offer = offers[offerIdx];\r\n        require((offer.status == uint16(offerStatus.wait) && offer.createTime+offerDeadline >= now), \"This offer has been lock!\");\r\n        require((offer.applicant == addr), \"Only applicant can update this offer.\");\r\n        _;\r\n    }\r\n\r\n\r\n    function existActiveOffer(address _applicant, address _company, uint _jobIdx ) \r\n    public view isValidApplicant(_applicant) isValidCompany(_company) returns(bool){\r\n        Job storage job = getJob(_company, _jobIdx);\r\n        uint offerIdx;\r\n        for(uint i=0;i < job.offers.length;i++){\r\n            offerIdx = job.offers[i];\r\n            if (offers[offerIdx].applicant == _applicant && \r\n                offers[offerIdx].status == uint16(offerStatus.wait) && \r\n                offers[offerIdx].createTime+offerDeadline <= now ) {\r\n                    return true;\r\n            }\r\n        }\r\n        return false;\r\n    }\r\n\r\n\r\n    // Account\r\n    // Action\r\n    function addAcc(string memory _name, bool _type) public {\r\n        require(!isAccount(msg.sender), \"Address should not be registered.\");\r\n        if (_type) { // Applicant\r\n            addApplicantAcc(_name);\r\n        }\r\n        else { // Company\r\n            addCompanyAcc(_name);\r\n        }\r\n    }\r\n\r\n    function updataAccContent(string memory _content, bool _type) public isValid(msg.sender) {\r\n        if (_type) { // Applicant\r\n            updateApplicantAcc(_content);\r\n        } else { // Company\r\n            updateCompanyAcc(_content);\r\n        }\r\n    }\r\n\r\n    // View\r\n    function getAddrInfo(address _userAddr) public view isValid(_userAddr)\r\n    returns(string memory _name, string memory _content, bool _type) {\r\n        string memory name;\r\n        string memory content;\r\n        if (isApplicant(_userAddr)) { // Applicant\r\n            (name, content, ) = getApplicantAcc(_userAddr);\r\n            return (name, content, true);\r\n        } else { // Company\r\n            (name, content) = getCompanyAcc(_userAddr);\r\n            return (name, content, false);\r\n        }\r\n    } \r\n    \r\n\r\n\r\n    // Invitation\r\n    // Action\r\n    function sendInvitation(address _tarAddr, uint _jobIdx, string memory _msg, bool _dir) public {\r\n        address _companyAddr;\r\n        address _applicantAddr;\r\n        if (_dir) { // From Applicant\r\n            _companyAddr = _tarAddr;\r\n            _applicantAddr = msg.sender;\r\n        } else { // From company\r\n            _companyAddr = msg.sender;\r\n            _applicantAddr = _tarAddr;\r\n        }\r\n        require(!existActiveInv(_applicantAddr, _companyAddr, _jobIdx), \"Exist active invitation!\");\r\n\r\n        Invitation memory new_inv = Invitation({\r\n            applicant: _applicantAddr,\r\n            company: _companyAddr,\r\n            jobIdx: _jobIdx,\r\n            message: _msg,\r\n            direction: _dir,\r\n            status: uint16(interStatus.wait),\r\n            idx: 0,\r\n            timestamp: now\r\n        });\r\n        new_inv.idx = invitations.push(new_inv)-1;\r\n\r\n        Job storage _job = getJob(_companyAddr, _jobIdx);\r\n        _job.invitations.push(new_inv.idx);\r\n\r\n        Applicant storage _applicant = applicants[_applicantAddr];\r\n        _applicant.invitations.push(new_inv.idx);\r\n\r\n        emit OnInvitationAdd(_applicantAddr, _companyAddr, _jobIdx, _dir);\r\n    }\r\n\r\n    function updateInvitationStatus(uint _invIdx, uint _newStatus) public modifiableInv(_invIdx, msg.sender) {\r\n        require( _newStatus < uint(interStatus.Last), \"New status is not valid!\" );\r\n        Invitation storage inv = invitations[_invIdx];\r\n        inv.status = uint16(_newStatus);\r\n        \r\n        emit OnInvitationUpdate(inv.applicant, inv.company, inv.jobIdx, inv.direction, inv.status);\r\n    }\r\n\r\n    // View\r\n    function getInvitationInfo(uint _invIdx) public view \r\n    returns (address _applicants, address _company, uint _jobIdx, \r\n    string memory _msg, bool _dir, uint _status, uint256 _timestamp) {\r\n        Invitation storage inv = invitations[_invIdx];\r\n        return (inv.applicant, inv.company, inv.jobIdx, inv.message, inv.direction, uint(inv.status), inv.timestamp);\r\n    }\r\n\r\n\r\n    // Offer\r\n    // Action\r\n    function sendOffer(address _tarAddr, uint _jobIdx, uint _payment, string memory _msg) public {\r\n        address _companyAddr = msg.sender;\r\n        address _applicantAddr = _tarAddr;\r\n        require(!existActiveOffer(_applicantAddr, _companyAddr, _jobIdx), \"Exist active offer!\");\r\n        require(applicants[_applicantAddr].status == uint16(AppStatus.open), \"Applicant is not open for offers!\");\r\n\r\n        Offer memory new_offer = Offer({\r\n            applicant: _applicantAddr,\r\n            company: _companyAddr,\r\n            jobIdx: _jobIdx,\r\n            message: _msg,\r\n            status: uint16(interStatus.wait),\r\n            payment: _payment,\r\n            idx: 0,\r\n            createTime: now,\r\n            updateTime: now\r\n        });\r\n        new_offer.idx = offers.push(new_offer)-1;\r\n\r\n        Job storage _job = getJob(_companyAddr, _jobIdx);\r\n        _job.offers.push(new_offer.idx);\r\n\r\n        Applicant storage _applicant = applicants[_applicantAddr];\r\n        _applicant.offers.push(new_offer.idx);\r\n\r\n        emit OnOfferAdd(_applicantAddr, _companyAddr, _jobIdx, _payment);\r\n    }\r\n\r\n    function updateOfferStatus(uint _offerIdx, uint _newStatus) public modifiableOffer(_offerIdx, msg.sender) {\r\n        require( _newStatus < uint(offerStatus.Last), \"New status is not valid!\" );\r\n        Offer storage offer = offers[_offerIdx];\r\n        offer.status = uint16(_newStatus);\r\n        \r\n        emit OnOfferUpdate(offer.applicant, offer.company, offer.jobIdx, offer.payment, offer.status);\r\n    }\r\n\r\n    function updateOfferPayment(uint _offerIdx, uint _newPayment) public {\r\n        Offer storage offer = offers[_offerIdx];\r\n        require(offer.company == msg.sender, \"Must be the comanpy account which sent the offer.\");\r\n        require(offer.updateTime + offerCooldown <= now, \"Payment update still in cool down.\");\r\n        offer.payment = _newPayment;\r\n\r\n        emit OnOfferUpdate(offer.applicant, offer.company, offer.jobIdx, offer.payment, offer.status);\r\n    }\r\n\r\n    // View\r\n    function getOfferInfo(uint _offerIdx) public view \r\n    returns (address _applicants, address _company, uint _jobIdx, \r\n    string memory _msg, uint _payment, uint _status, uint256 _createTime, uint256 _updateTime) {\r\n        Offer storage offer = offers[_offerIdx];\r\n        return (offer.applicant, offer.company, offer.jobIdx, offer.message, offer.payment, uint(offer.status), offer.createTime, offer.updateTime);\r\n    }\r\n}",
  "sourcePath": "C:/Users/chung/Documents//()/nmLab-final/contracts/AgencyApp.sol",
  "compiler": {
    "name": "solc",
    "version": "0.5.16+commit.9c3226ce.Emscripten.clang"
  },
  "schemaVersion": "3.3.3",
  "updatedAt": "2020-12-29T09:33:13.987Z",
  "networkType": "ethereum",
  "devdoc": {
    "methods": {}
  },
  "userdoc": {
    "methods": {}
  }
}